{"contracts/functions.sol":{"functions":{"abi":[{"inputs":[{"internalType":"uint256","name":"x","type":"uint256"},{"internalType":"uint256","name":"y","type":"uint256"}],"name":"PRBMath_MulDiv18_Overflow","type":"error"},{"inputs":[{"internalType":"uint256","name":"x","type":"uint256"},{"internalType":"uint256","name":"y","type":"uint256"},{"internalType":"uint256","name":"denominator","type":"uint256"}],"name":"PRBMath_MulDiv_Overflow","type":"error"},{"inputs":[{"internalType":"int256","name":"x","type":"int256"}],"name":"PRBMath_SD59x18_Convert_Overflow","type":"error"},{"inputs":[{"internalType":"int256","name":"x","type":"int256"}],"name":"PRBMath_SD59x18_Convert_Underflow","type":"error"},{"inputs":[],"name":"PRBMath_SD59x18_Div_InputTooSmall","type":"error"},{"inputs":[{"internalType":"SD59x18","name":"x","type":"int256"},{"internalType":"SD59x18","name":"y","type":"int256"}],"name":"PRBMath_SD59x18_Div_Overflow","type":"error"},{"inputs":[{"internalType":"SD59x18","name":"x","type":"int256"}],"name":"PRBMath_SD59x18_Exp2_InputTooBig","type":"error"},{"inputs":[{"internalType":"SD59x18","name":"x","type":"int256"}],"name":"PRBMath_SD59x18_Exp_InputTooBig","type":"error"},{"inputs":[],"name":"PRBMath_SD59x18_Mul_InputTooSmall","type":"error"},{"inputs":[{"internalType":"SD59x18","name":"x","type":"int256"},{"internalType":"SD59x18","name":"y","type":"int256"}],"name":"PRBMath_SD59x18_Mul_Overflow","type":"error"},{"inputs":[{"internalType":"int256","name":"x","type":"int256"},{"internalType":"int256","name":"y","type":"int256"}],"name":"add_1","outputs":[],"stateMutability":"view","type":"function"},{"inputs":[{"internalType":"int256","name":"x","type":"int256"},{"internalType":"int256","name":"y","type":"int256"}],"name":"add_2","outputs":[],"stateMutability":"pure","type":"function"},{"inputs":[{"internalType":"SD59x18","name":"x","type":"int256"},{"internalType":"SD59x18","name":"y","type":"int256"}],"name":"add_prb_1","outputs":[],"stateMutability":"view","type":"function"},{"inputs":[{"internalType":"SD59x18","name":"x","type":"int256"},{"internalType":"SD59x18","name":"y","type":"int256"}],"name":"add_prb_2","outputs":[],"stateMutability":"pure","type":"function"},{"inputs":[{"internalType":"int256","name":"x","type":"int256"},{"internalType":"int256","name":"y","type":"int256"}],"name":"div_1","outputs":[],"stateMutability":"view","type":"function"},{"inputs":[{"internalType":"int256","name":"x","type":"int256"},{"internalType":"int256","name":"y","type":"int256"}],"name":"div_2","outputs":[],"stateMutability":"pure","type":"function"},{"inputs":[{"internalType":"SD59x18","name":"x","type":"int256"},{"internalType":"SD59x18","name":"y","type":"int256"}],"name":"div_prb_1","outputs":[],"stateMutability":"view","type":"function"},{"inputs":[{"internalType":"SD59x18","name":"x","type":"int256"},{"internalType":"SD59x18","name":"y","type":"int256"}],"name":"div_prb_2","outputs":[],"stateMutability":"pure","type":"function"},{"inputs":[{"internalType":"int256","name":"x","type":"int256"},{"internalType":"int256","name":"y","type":"int256"}],"name":"mul_1","outputs":[],"stateMutability":"view","type":"function"},{"inputs":[{"internalType":"int256","name":"x","type":"int256"},{"internalType":"int256","name":"y","type":"int256"}],"name":"mul_2","outputs":[],"stateMutability":"pure","type":"function"},{"inputs":[{"internalType":"SD59x18","name":"x","type":"int256"},{"internalType":"SD59x18","name":"y","type":"int256"}],"name":"mul_prb_1","outputs":[],"stateMutability":"view","type":"function"},{"inputs":[{"internalType":"SD59x18","name":"x","type":"int256"},{"internalType":"SD59x18","name":"y","type":"int256"}],"name":"mul_prb_2","outputs":[],"stateMutability":"pure","type":"function"},{"inputs":[{"internalType":"SD59x18","name":"x","type":"int256"}],"name":"relu","outputs":[{"internalType":"SD59x18","name":"","type":"int256"}],"stateMutability":"pure","type":"function"},{"inputs":[{"internalType":"SD59x18","name":"x","type":"int256"}],"name":"sigmoid","outputs":[{"internalType":"SD59x18","name":"","type":"int256"}],"stateMutability":"pure","type":"function"}],"evm":{"bytecode":{"linkReferences":{},"object":"608060405234801561001057600080fd5b506119ff806100206000396000f3fe608060405234801561001057600080fd5b50600436106100ea5760003560e01c8063b19cdbce1161008c578063c4a986fd11610066578063c4a986fd1461022f578063da36f37a1461024b578063e7ec906414610267578063f84bef9914610283576100ea565b8063b19cdbce146101db578063b3c9d9e0146101f7578063b87f1e0c14610213576100ea565b806367fe9add116100c857806367fe9add1461014357806394d5e4c2146101735780639713342d146101a3578063a3d08650146101bf576100ea565b80631d1a27d1146100ef5780632a15c7c41461010b5780634daa569c14610127575b600080fd5b61010960048036038101906101049190611602565b61029f565b005b61012560048036038101906101209190611602565b6102b0565b005b610141600480360381019061013c919061166e565b6102c1565b005b61015d600480360381019061015891906116ae565b6102c5565b60405161016a9190611716565b60405180910390f35b61018d600480360381019061018891906116ae565b610317565b60405161019a9190611716565b60405180910390f35b6101bd60048036038101906101b8919061166e565b610358565b005b6101d960048036038101906101d4919061166e565b610370565b005b6101f560048036038101906101f0919061166e565b610374565b005b610211600480360381019061020c919061166e565b61038c565b005b61022d6004803603810190610228919061166e565b610390565b005b61024960048036038101906102449190611602565b6103a8565b005b61026560048036038101906102609190611602565b6103ac565b005b610281600480360381019061027c9190611602565b6103b0565b005b61029d60048036038101906102989190611602565b6103b4565b005b80826102ab9190611760565b505050565b80826102bc91906117d8565b505050565b5050565b6000806001905060006102d7826103c5565b905061030e6102ff6102f06102eb876104c9565b6104ec565b836105bc90919063ffffffff16565b826105ea90919063ffffffff16565b92505050919050565b600080600090506000610329826103c5565b905061033e818561078390919063ffffffff16565b1561034d578392505050610353565b80925050505b919050565b61036b81836105ea90919063ffffffff16565b505050565b5050565b61038781836105bc90919063ffffffff16565b505050565b5050565b6103a381836107a190919063ffffffff16565b505050565b5050565b5050565b5050565b80826103c0919061184b565b505050565b6000670de0b6b3a76400007f80000000000000000000000000000000000000000000000000000000000000006103fb919061184b565b82121561043f57816040517f99474eeb00000000000000000000000000000000000000000000000000000000815260040161043691906118c4565b60405180910390fd5b670de0b6b3a76400007f7fffffffffffffffffffffffffffffffffffffffffffffffffffffffffffffff610473919061184b565b8213156104b757816040517f9d5810910000000000000000000000000000000000000000000000000000000081526004016104ae91906118c4565b60405180910390fd5b670de0b6b3a764000082029050919050565b60006104e56104d783610931565b6104e0906118df565b61093b565b9050919050565b6000806104f883610931565b90507ffffffffffffffffffffffffffffffffffffffffffffffffdc0d0570925a462ce81121561052c5760009150506105b7565b680736ea4425c11ac63081131561057a57826040517fca7ec0c50000000000000000000000000000000000000000000000000000000081526004016105719190611716565b60405180910390fd5b60006714057b7ef767814f820290506105b26105ad670de0b6b3a764000083816105a7576105a661181c565b5b0561093b565b610945565b925050505b919050565b60006105e26105ca83610931565b6105d385610931565b6105dd91906117d8565b61093b565b905092915050565b6000806105f684610931565b9050600061060384610931565b90507f800000000000000000000000000000000000000000000000000000000000000082148061065257507f800000000000000000000000000000000000000000000000000000000000000081145b15610689576040517f9fe2b45000000000000000000000000000000000000000000000000000000000815260040160405180910390fd5b6000806000841261069a578361069f565b836000035b9150600083126106af57826106b4565b826000035b905060006106cb83670de0b6b3a764000084610a63565b90507f7fffffffffffffffffffffffffffffffffffffffffffffffffffffffffffffff8111156107345787876040517fd49c26b300000000000000000000000000000000000000000000000000000000815260040161072b929190611927565b60405180910390fd5b60007fffffffffffffffffffffffffffffffffffffffffffffffffffffffffffffffff8587181390506107758161076e5782600003610770565b825b61093b565b965050505050505092915050565b600061078e82610931565b61079784610931565b1215905092915050565b6000806107ad84610931565b905060006107ba84610931565b90507f800000000000000000000000000000000000000000000000000000000000000082148061080957507f800000000000000000000000000000000000000000000000000000000000000081145b15610840576040517fa6070c2500000000000000000000000000000000000000000000000000000000815260040160405180910390fd5b600080600084126108515783610856565b836000035b915060008312610866578261086b565b826000035b905060006108798383610b7d565b90507f7fffffffffffffffffffffffffffffffffffffffffffffffffffffffffffffff8111156108e25787876040517f120b5b430000000000000000000000000000000000000000000000000000000081526004016108d9929190611927565b60405180910390fd5b60007fffffffffffffffffffffffffffffffffffffffffffffffffffffffffffffffff8587181390506109238161091c578260000361091e565b825b61093b565b965050505050505092915050565b6000819050919050565b6000819050919050565b60008061095183610931565b905060008112156109d8577ffffffffffffffffffffffffffffffffffffffffffffffffcc22e87f6eb468eeb81121561098e576000915050610a5e565b6109d16109ad6109a86109a38460000361093b565b610945565b610931565b6ec097ce7bc90715b34b9f1000000000816109cb576109ca61181c565b5b0561093b565b9150610a5c565b680a688906bd8affffff811315610a2657826040517f0360d028000000000000000000000000000000000000000000000000000000008152600401610a1d9190611716565b60405180910390fd5b6000670de0b6b3a7640000604083901b81610a4457610a4361181c565b5b059050610a58610a5382610c67565b61093b565b9250505b505b919050565b6000806000801985870985870292508281108382030391505060008103610a9e57838281610a9457610a9361181c565b5b0492505050610b76565b838110610ae6578585856040517f63a05778000000000000000000000000000000000000000000000000000000008152600401610add93929190611969565b60405180910390fd5b60008486880990508281118203915080830392506000600186190186169050600081870496508185049450600182836000030401905080840285179450600060028860030218905080880260020381029050808802600203810290508088026002038102905080880260020381029050808802600203810290508088026002038102905080860296505050505050505b9392505050565b6000806000801984860984860292508281108382030391505060008103610bc057670de0b6b3a76400008281610bb657610bb561181c565b5b0492505050610c61565b670de0b6b3a76400008110610c0e5784846040517f5173648d000000000000000000000000000000000000000000000000000000008152600401610c059291906119a0565b60405180910390fd5b6000670de0b6b3a764000085870990507faccb18165bd6fe31ae1cf318dc5b51eee0e1ba569b88cd74c1773b91fac106696001620400008060000304018483118403026204000083860304170293505050505b92915050565b6000778000000000000000000000000000000000000000000000009050600067ff0000000000000083161115610dc857600067800000000000000083161115610cbd57604068016a09e667f3bcc9098202901c90505b600067400000000000000083161115610ce35760406801306fe0a31b7152df8202901c90505b600067200000000000000083161115610d095760406801172b83c7d517adce8202901c90505b600067100000000000000083161115610d2f57604068010b5586cf9890f62a8202901c90505b600067080000000000000083161115610d555760406801059b0d31585743ae8202901c90505b600067040000000000000083161115610d7b576040680102c9a3e778060ee78202901c90505b600067020000000000000083161115610da157604068010163da9fb33356d88202901c90505b600067010000000000000083161115610dc7576040680100b1afa5abcbed618202901c90505b5b600066ff00000000000083161115610f03576000668000000000000083161115610dff57604068010058c86da1c09ea28202901c90505b6000664000000000000083161115610e245760406801002c605e2e8cec508202901c90505b6000662000000000000083161115610e49576040680100162f3904051fa18202901c90505b6000661000000000000083161115610e6e5760406801000b175effdc76ba8202901c90505b6000660800000000000083161115610e93576040680100058ba01fb9f96d8202901c90505b6000660400000000000083161115610eb857604068010002c5cc37da94928202901c90505b6000660200000000000083161115610edd5760406801000162e525ee05478202901c90505b6000660100000000000083161115610f0257604068010000b17255775c048202901c90505b5b600065ff0000000000831611156110355760006580000000000083161115610f385760406801000058b91b5bc9ae8202901c90505b60006540000000000083161115610f5c576040680100002c5c89d5ec6d8202901c90505b60006520000000000083161115610f8057604068010000162e43f4f8318202901c90505b60006510000000000083161115610fa4576040680100000b1721bcfc9a8202901c90505b60006508000000000083161115610fc857604068010000058b90cf1e6e8202901c90505b60006504000000000083161115610fec5760406801000002c5c863b73f8202901c90505b60006502000000000083161115611010576040680100000162e430e5a28202901c90505b600065010000000000831611156110345760406801000000b1721835518202901c90505b5b600064ff000000008316111561115e57600064800000000083161115611068576040680100000058b90c0b498202901c90505b60006440000000008316111561108b57604068010000002c5c8601cc8202901c90505b6000642000000000831611156110ae5760406801000000162e42fff08202901c90505b6000641000000000831611156110d157604068010000000b17217fbb8202901c90505b6000640800000000831611156110f45760406801000000058b90bfce8202901c90505b600064040000000083161115611117576040680100000002c5c85fe38202901c90505b60006402000000008316111561113a57604068010000000162e42ff18202901c90505b60006401000000008316111561115d576040680100000000b17217f88202901c90505b5b600063ff0000008316111561127e57600063800000008316111561118f57604068010000000058b90bfc8202901c90505b60006340000000831611156111b15760406801000000002c5c85fe8202901c90505b60006320000000831611156111d3576040680100000000162e42ff8202901c90505b60006310000000831611156111f55760406801000000000b17217f8202901c90505b6000630800000083161115611217576040680100000000058b90c08202901c90505b600063040000008316111561123957604068010000000002c5c8608202901c90505b600063020000008316111561125b5760406801000000000162e4308202901c90505b600063010000008316111561127d57604068010000000000b172188202901c90505b5b600062ff00008316111561139557600062800000831611156112ad5760406801000000000058b90c8202901c90505b600062400000831611156112ce576040680100000000002c5c868202901c90505b600062200000831611156112ef57604068010000000000162e438202901c90505b60006210000083161115611310576040680100000000000b17218202901c90505b6000620800008316111561133157604068010000000000058b918202901c90505b600062040000831611156113525760406801000000000002c5c88202901c90505b60006202000083161115611373576040680100000000000162e48202901c90505b600062010000831611156113945760406801000000000000b1728202901c90505b5b600061ff00831611156114a3576000618000831611156113c2576040680100000000000058b98202901c90505b6000614000831611156113e257604068010000000000002c5d8202901c90505b6000612000831611156114025760406801000000000000162e8202901c90505b60006110008316111561142257604068010000000000000b178202901c90505b6000610800831611156114425760406801000000000000058c8202901c90505b600061040083161115611462576040680100000000000002c68202901c90505b600061020083161115611482576040680100000000000001638202901c90505b6000610100831611156114a2576040680100000000000000b18202901c90505b5b600060ff831611156115a85760006080831611156114ce576040680100000000000000598202901c90505b60006040831611156114ed5760406801000000000000002c8202901c90505b600060208316111561150c576040680100000000000000168202901c90505b600060108316111561152b5760406801000000000000000b8202901c90505b600060088316111561154a576040680100000000000000068202901c90505b6000600483161115611569576040680100000000000000038202901c90505b6000600283161115611588576040680100000000000000018202901c90505b60006001831611156115a7576040680100000000000000018202901c90505b5b670de0b6b3a764000081029050604082901c60bf0381901c9050919050565b600080fd5b6000819050919050565b6115df816115cc565b81146115ea57600080fd5b50565b6000813590506115fc816115d6565b92915050565b60008060408385031215611619576116186115c7565b5b6000611627858286016115ed565b9250506020611638858286016115ed565b9150509250929050565b61164b816115cc565b811461165657600080fd5b50565b60008135905061166881611642565b92915050565b60008060408385031215611685576116846115c7565b5b600061169385828601611659565b92505060206116a485828601611659565b9150509250929050565b6000602082840312156116c4576116c36115c7565b5b60006116d284828501611659565b91505092915050565b6000819050919050565b60006117006116fb6116f6846115cc565b6116db565b6115cc565b9050919050565b611710816116e5565b82525050565b600060208201905061172b6000830184611707565b92915050565b7f4e487b7100000000000000000000000000000000000000000000000000000000600052601160045260246000fd5b600061176b826115cc565b9150611776836115cc565b9250828202611784816115cc565b91507f800000000000000000000000000000000000000000000000000000000000000084146000841216156117bc576117bb611731565b5b82820584148315176117d1576117d0611731565b5b5092915050565b60006117e3826115cc565b91506117ee836115cc565b92508282019050828112156000831216838212600084121516171561181657611815611731565b5b92915050565b7f4e487b7100000000000000000000000000000000000000000000000000000000600052601260045260246000fd5b6000611856826115cc565b9150611861836115cc565b9250826118715761187061181c565b5b600160000383147f8000000000000000000000000000000000000000000000000000000000000000831416156118aa576118a9611731565b5b828205905092915050565b6118be816115cc565b82525050565b60006020820190506118d960008301846118b5565b92915050565b60006118ea826115cc565b91507f8000000000000000000000000000000000000000000000000000000000000000820361191c5761191b611731565b5b816000039050919050565b600060408201905061193c6000830185611707565b6119496020830184611707565b9392505050565b6000819050919050565b61196381611950565b82525050565b600060608201905061197e600083018661195a565b61198b602083018561195a565b611998604083018461195a565b949350505050565b60006040820190506119b5600083018561195a565b6119c2602083018461195a565b939250505056fea2646970667358221220a83eab4e2b7ff49fccd135ce65d125a5ecd04250ec99dead072888c70d37b93064736f6c63430008140033","opcodes":"PUSH1 0x80 PUSH1 0x40 MSTORE CALLVALUE DUP1 ISZERO PUSH2 0x10 JUMPI PUSH1 0x0 DUP1 REVERT JUMPDEST POP PUSH2 0x19FF DUP1 PUSH2 0x20 PUSH1 0x0 CODECOPY PUSH1 0x0 RETURN INVALID PUSH1 0x80 PUSH1 0x40 MSTORE CALLVALUE DUP1 ISZERO PUSH2 0x10 JUMPI PUSH1 0x0 DUP1 REVERT JUMPDEST POP PUSH1 0x4 CALLDATASIZE LT PUSH2 0xEA JUMPI PUSH1 0x0 CALLDATALOAD PUSH1 0xE0 SHR DUP1 PUSH4 0xB19CDBCE GT PUSH2 0x8C JUMPI DUP1 PUSH4 0xC4A986FD GT PUSH2 0x66 JUMPI DUP1 PUSH4 0xC4A986FD EQ PUSH2 0x22F JUMPI DUP1 PUSH4 0xDA36F37A EQ PUSH2 0x24B JUMPI DUP1 PUSH4 0xE7EC9064 EQ PUSH2 0x267 JUMPI DUP1 PUSH4 0xF84BEF99 EQ PUSH2 0x283 JUMPI PUSH2 0xEA JUMP JUMPDEST DUP1 PUSH4 0xB19CDBCE EQ PUSH2 0x1DB JUMPI DUP1 PUSH4 0xB3C9D9E0 EQ PUSH2 0x1F7 JUMPI DUP1 PUSH4 0xB87F1E0C EQ PUSH2 0x213 JUMPI PUSH2 0xEA JUMP JUMPDEST DUP1 PUSH4 0x67FE9ADD GT PUSH2 0xC8 JUMPI DUP1 PUSH4 0x67FE9ADD EQ PUSH2 0x143 JUMPI DUP1 PUSH4 0x94D5E4C2 EQ PUSH2 0x173 JUMPI DUP1 PUSH4 0x9713342D EQ PUSH2 0x1A3 JUMPI DUP1 PUSH4 0xA3D08650 EQ PUSH2 0x1BF JUMPI PUSH2 0xEA JUMP JUMPDEST DUP1 PUSH4 0x1D1A27D1 EQ PUSH2 0xEF JUMPI DUP1 PUSH4 0x2A15C7C4 EQ PUSH2 0x10B JUMPI DUP1 PUSH4 0x4DAA569C EQ PUSH2 0x127 JUMPI JUMPDEST PUSH1 0x0 DUP1 REVERT JUMPDEST PUSH2 0x109 PUSH1 0x4 DUP1 CALLDATASIZE SUB DUP2 ADD SWAP1 PUSH2 0x104 SWAP2 SWAP1 PUSH2 0x1602 JUMP JUMPDEST PUSH2 0x29F JUMP JUMPDEST STOP JUMPDEST PUSH2 0x125 PUSH1 0x4 DUP1 CALLDATASIZE SUB DUP2 ADD SWAP1 PUSH2 0x120 SWAP2 SWAP1 PUSH2 0x1602 JUMP JUMPDEST PUSH2 0x2B0 JUMP JUMPDEST STOP JUMPDEST PUSH2 0x141 PUSH1 0x4 DUP1 CALLDATASIZE SUB DUP2 ADD SWAP1 PUSH2 0x13C SWAP2 SWAP1 PUSH2 0x166E JUMP JUMPDEST PUSH2 0x2C1 JUMP JUMPDEST STOP JUMPDEST PUSH2 0x15D PUSH1 0x4 DUP1 CALLDATASIZE SUB DUP2 ADD SWAP1 PUSH2 0x158 SWAP2 SWAP1 PUSH2 0x16AE JUMP JUMPDEST PUSH2 0x2C5 JUMP JUMPDEST PUSH1 0x40 MLOAD PUSH2 0x16A SWAP2 SWAP1 PUSH2 0x1716 JUMP JUMPDEST PUSH1 0x40 MLOAD DUP1 SWAP2 SUB SWAP1 RETURN JUMPDEST PUSH2 0x18D PUSH1 0x4 DUP1 CALLDATASIZE SUB DUP2 ADD SWAP1 PUSH2 0x188 SWAP2 SWAP1 PUSH2 0x16AE JUMP JUMPDEST PUSH2 0x317 JUMP JUMPDEST PUSH1 0x40 MLOAD PUSH2 0x19A SWAP2 SWAP1 PUSH2 0x1716 JUMP JUMPDEST PUSH1 0x40 MLOAD DUP1 SWAP2 SUB SWAP1 RETURN JUMPDEST PUSH2 0x1BD PUSH1 0x4 DUP1 CALLDATASIZE SUB DUP2 ADD SWAP1 PUSH2 0x1B8 SWAP2 SWAP1 PUSH2 0x166E JUMP JUMPDEST PUSH2 0x358 JUMP JUMPDEST STOP JUMPDEST PUSH2 0x1D9 PUSH1 0x4 DUP1 CALLDATASIZE SUB DUP2 ADD SWAP1 PUSH2 0x1D4 SWAP2 SWAP1 PUSH2 0x166E JUMP JUMPDEST PUSH2 0x370 JUMP JUMPDEST STOP JUMPDEST PUSH2 0x1F5 PUSH1 0x4 DUP1 CALLDATASIZE SUB DUP2 ADD SWAP1 PUSH2 0x1F0 SWAP2 SWAP1 PUSH2 0x166E JUMP JUMPDEST PUSH2 0x374 JUMP JUMPDEST STOP JUMPDEST PUSH2 0x211 PUSH1 0x4 DUP1 CALLDATASIZE SUB DUP2 ADD SWAP1 PUSH2 0x20C SWAP2 SWAP1 PUSH2 0x166E JUMP JUMPDEST PUSH2 0x38C JUMP JUMPDEST STOP JUMPDEST PUSH2 0x22D PUSH1 0x4 DUP1 CALLDATASIZE SUB DUP2 ADD SWAP1 PUSH2 0x228 SWAP2 SWAP1 PUSH2 0x166E JUMP JUMPDEST PUSH2 0x390 JUMP JUMPDEST STOP JUMPDEST PUSH2 0x249 PUSH1 0x4 DUP1 CALLDATASIZE SUB DUP2 ADD SWAP1 PUSH2 0x244 SWAP2 SWAP1 PUSH2 0x1602 JUMP JUMPDEST PUSH2 0x3A8 JUMP JUMPDEST STOP JUMPDEST PUSH2 0x265 PUSH1 0x4 DUP1 CALLDATASIZE SUB DUP2 ADD SWAP1 PUSH2 0x260 SWAP2 SWAP1 PUSH2 0x1602 JUMP JUMPDEST PUSH2 0x3AC JUMP JUMPDEST STOP JUMPDEST PUSH2 0x281 PUSH1 0x4 DUP1 CALLDATASIZE SUB DUP2 ADD SWAP1 PUSH2 0x27C SWAP2 SWAP1 PUSH2 0x1602 JUMP JUMPDEST PUSH2 0x3B0 JUMP JUMPDEST STOP JUMPDEST PUSH2 0x29D PUSH1 0x4 DUP1 CALLDATASIZE SUB DUP2 ADD SWAP1 PUSH2 0x298 SWAP2 SWAP1 PUSH2 0x1602 JUMP JUMPDEST PUSH2 0x3B4 JUMP JUMPDEST STOP JUMPDEST DUP1 DUP3 PUSH2 0x2AB SWAP2 SWAP1 PUSH2 0x1760 JUMP JUMPDEST POP POP POP JUMP JUMPDEST DUP1 DUP3 PUSH2 0x2BC SWAP2 SWAP1 PUSH2 0x17D8 JUMP JUMPDEST POP POP POP JUMP JUMPDEST POP POP JUMP JUMPDEST PUSH1 0x0 DUP1 PUSH1 0x1 SWAP1 POP PUSH1 0x0 PUSH2 0x2D7 DUP3 PUSH2 0x3C5 JUMP JUMPDEST SWAP1 POP PUSH2 0x30E PUSH2 0x2FF PUSH2 0x2F0 PUSH2 0x2EB DUP8 PUSH2 0x4C9 JUMP JUMPDEST PUSH2 0x4EC JUMP JUMPDEST DUP4 PUSH2 0x5BC SWAP1 SWAP2 SWAP1 PUSH4 0xFFFFFFFF AND JUMP JUMPDEST DUP3 PUSH2 0x5EA SWAP1 SWAP2 SWAP1 PUSH4 0xFFFFFFFF AND JUMP JUMPDEST SWAP3 POP POP POP SWAP2 SWAP1 POP JUMP JUMPDEST PUSH1 0x0 DUP1 PUSH1 0x0 SWAP1 POP PUSH1 0x0 PUSH2 0x329 DUP3 PUSH2 0x3C5 JUMP JUMPDEST SWAP1 POP PUSH2 0x33E DUP2 DUP6 PUSH2 0x783 SWAP1 SWAP2 SWAP1 PUSH4 0xFFFFFFFF AND JUMP JUMPDEST ISZERO PUSH2 0x34D JUMPI DUP4 SWAP3 POP POP POP PUSH2 0x353 JUMP JUMPDEST DUP1 SWAP3 POP POP POP JUMPDEST SWAP2 SWAP1 POP JUMP JUMPDEST PUSH2 0x36B DUP2 DUP4 PUSH2 0x5EA SWAP1 SWAP2 SWAP1 PUSH4 0xFFFFFFFF AND JUMP JUMPDEST POP POP POP JUMP JUMPDEST POP POP JUMP JUMPDEST PUSH2 0x387 DUP2 DUP4 PUSH2 0x5BC SWAP1 SWAP2 SWAP1 PUSH4 0xFFFFFFFF AND JUMP JUMPDEST POP POP POP JUMP JUMPDEST POP POP JUMP JUMPDEST PUSH2 0x3A3 DUP2 DUP4 PUSH2 0x7A1 SWAP1 SWAP2 SWAP1 PUSH4 0xFFFFFFFF AND JUMP JUMPDEST POP POP POP JUMP JUMPDEST POP POP JUMP JUMPDEST POP POP JUMP JUMPDEST POP POP JUMP JUMPDEST DUP1 DUP3 PUSH2 0x3C0 SWAP2 SWAP1 PUSH2 0x184B JUMP JUMPDEST POP POP POP JUMP JUMPDEST PUSH1 0x0 PUSH8 0xDE0B6B3A7640000 PUSH32 0x8000000000000000000000000000000000000000000000000000000000000000 PUSH2 0x3FB SWAP2 SWAP1 PUSH2 0x184B JUMP JUMPDEST DUP3 SLT ISZERO PUSH2 0x43F JUMPI DUP2 PUSH1 0x40 MLOAD PUSH32 0x99474EEB00000000000000000000000000000000000000000000000000000000 DUP2 MSTORE PUSH1 0x4 ADD PUSH2 0x436 SWAP2 SWAP1 PUSH2 0x18C4 JUMP JUMPDEST PUSH1 0x40 MLOAD DUP1 SWAP2 SUB SWAP1 REVERT JUMPDEST PUSH8 0xDE0B6B3A7640000 PUSH32 0x7FFFFFFFFFFFFFFFFFFFFFFFFFFFFFFFFFFFFFFFFFFFFFFFFFFFFFFFFFFFFFFF PUSH2 0x473 SWAP2 SWAP1 PUSH2 0x184B JUMP JUMPDEST DUP3 SGT ISZERO PUSH2 0x4B7 JUMPI DUP2 PUSH1 0x40 MLOAD PUSH32 0x9D58109100000000000000000000000000000000000000000000000000000000 DUP2 MSTORE PUSH1 0x4 ADD PUSH2 0x4AE SWAP2 SWAP1 PUSH2 0x18C4 JUMP JUMPDEST PUSH1 0x40 MLOAD DUP1 SWAP2 SUB SWAP1 REVERT JUMPDEST PUSH8 0xDE0B6B3A7640000 DUP3 MUL SWAP1 POP SWAP2 SWAP1 POP JUMP JUMPDEST PUSH1 0x0 PUSH2 0x4E5 PUSH2 0x4D7 DUP4 PUSH2 0x931 JUMP JUMPDEST PUSH2 0x4E0 SWAP1 PUSH2 0x18DF JUMP JUMPDEST PUSH2 0x93B JUMP JUMPDEST SWAP1 POP SWAP2 SWAP1 POP JUMP JUMPDEST PUSH1 0x0 DUP1 PUSH2 0x4F8 DUP4 PUSH2 0x931 JUMP JUMPDEST SWAP1 POP PUSH32 0xFFFFFFFFFFFFFFFFFFFFFFFFFFFFFFFFFFFFFFFFFFFFFFFDC0D0570925A462CE DUP2 SLT ISZERO PUSH2 0x52C JUMPI PUSH1 0x0 SWAP2 POP POP PUSH2 0x5B7 JUMP JUMPDEST PUSH9 0x736EA4425C11AC630 DUP2 SGT ISZERO PUSH2 0x57A JUMPI DUP3 PUSH1 0x40 MLOAD PUSH32 0xCA7EC0C500000000000000000000000000000000000000000000000000000000 DUP2 MSTORE PUSH1 0x4 ADD PUSH2 0x571 SWAP2 SWAP1 PUSH2 0x1716 JUMP JUMPDEST PUSH1 0x40 MLOAD DUP1 SWAP2 SUB SWAP1 REVERT JUMPDEST PUSH1 0x0 PUSH8 0x14057B7EF767814F DUP3 MUL SWAP1 POP PUSH2 0x5B2 PUSH2 0x5AD PUSH8 0xDE0B6B3A7640000 DUP4 DUP2 PUSH2 0x5A7 JUMPI PUSH2 0x5A6 PUSH2 0x181C JUMP JUMPDEST JUMPDEST SDIV PUSH2 0x93B JUMP JUMPDEST PUSH2 0x945 JUMP JUMPDEST SWAP3 POP POP POP JUMPDEST SWAP2 SWAP1 POP JUMP JUMPDEST PUSH1 0x0 PUSH2 0x5E2 PUSH2 0x5CA DUP4 PUSH2 0x931 JUMP JUMPDEST PUSH2 0x5D3 DUP6 PUSH2 0x931 JUMP JUMPDEST PUSH2 0x5DD SWAP2 SWAP1 PUSH2 0x17D8 JUMP JUMPDEST PUSH2 0x93B JUMP JUMPDEST SWAP1 POP SWAP3 SWAP2 POP POP JUMP JUMPDEST PUSH1 0x0 DUP1 PUSH2 0x5F6 DUP5 PUSH2 0x931 JUMP JUMPDEST SWAP1 POP PUSH1 0x0 PUSH2 0x603 DUP5 PUSH2 0x931 JUMP JUMPDEST SWAP1 POP PUSH32 0x8000000000000000000000000000000000000000000000000000000000000000 DUP3 EQ DUP1 PUSH2 0x652 JUMPI POP PUSH32 0x8000000000000000000000000000000000000000000000000000000000000000 DUP2 EQ JUMPDEST ISZERO PUSH2 0x689 JUMPI PUSH1 0x40 MLOAD PUSH32 0x9FE2B45000000000000000000000000000000000000000000000000000000000 DUP2 MSTORE PUSH1 0x4 ADD PUSH1 0x40 MLOAD DUP1 SWAP2 SUB SWAP1 REVERT JUMPDEST PUSH1 0x0 DUP1 PUSH1 0x0 DUP5 SLT PUSH2 0x69A JUMPI DUP4 PUSH2 0x69F JUMP JUMPDEST DUP4 PUSH1 0x0 SUB JUMPDEST SWAP2 POP PUSH1 0x0 DUP4 SLT PUSH2 0x6AF JUMPI DUP3 PUSH2 0x6B4 JUMP JUMPDEST DUP3 PUSH1 0x0 SUB JUMPDEST SWAP1 POP PUSH1 0x0 PUSH2 0x6CB DUP4 PUSH8 0xDE0B6B3A7640000 DUP5 PUSH2 0xA63 JUMP JUMPDEST SWAP1 POP PUSH32 0x7FFFFFFFFFFFFFFFFFFFFFFFFFFFFFFFFFFFFFFFFFFFFFFFFFFFFFFFFFFFFFFF DUP2 GT ISZERO PUSH2 0x734 JUMPI DUP8 DUP8 PUSH1 0x40 MLOAD PUSH32 0xD49C26B300000000000000000000000000000000000000000000000000000000 DUP2 MSTORE PUSH1 0x4 ADD PUSH2 0x72B SWAP3 SWAP2 SWAP1 PUSH2 0x1927 JUMP JUMPDEST PUSH1 0x40 MLOAD DUP1 SWAP2 SUB SWAP1 REVERT JUMPDEST PUSH1 0x0 PUSH32 0xFFFFFFFFFFFFFFFFFFFFFFFFFFFFFFFFFFFFFFFFFFFFFFFFFFFFFFFFFFFFFFFF DUP6 DUP8 XOR SGT SWAP1 POP PUSH2 0x775 DUP2 PUSH2 0x76E JUMPI DUP3 PUSH1 0x0 SUB PUSH2 0x770 JUMP JUMPDEST DUP3 JUMPDEST PUSH2 0x93B JUMP JUMPDEST SWAP7 POP POP POP POP POP POP POP SWAP3 SWAP2 POP POP JUMP JUMPDEST PUSH1 0x0 PUSH2 0x78E DUP3 PUSH2 0x931 JUMP JUMPDEST PUSH2 0x797 DUP5 PUSH2 0x931 JUMP JUMPDEST SLT ISZERO SWAP1 POP SWAP3 SWAP2 POP POP JUMP JUMPDEST PUSH1 0x0 DUP1 PUSH2 0x7AD DUP5 PUSH2 0x931 JUMP JUMPDEST SWAP1 POP PUSH1 0x0 PUSH2 0x7BA DUP5 PUSH2 0x931 JUMP JUMPDEST SWAP1 POP PUSH32 0x8000000000000000000000000000000000000000000000000000000000000000 DUP3 EQ DUP1 PUSH2 0x809 JUMPI POP PUSH32 0x8000000000000000000000000000000000000000000000000000000000000000 DUP2 EQ JUMPDEST ISZERO PUSH2 0x840 JUMPI PUSH1 0x40 MLOAD PUSH32 0xA6070C2500000000000000000000000000000000000000000000000000000000 DUP2 MSTORE PUSH1 0x4 ADD PUSH1 0x40 MLOAD DUP1 SWAP2 SUB SWAP1 REVERT JUMPDEST PUSH1 0x0 DUP1 PUSH1 0x0 DUP5 SLT PUSH2 0x851 JUMPI DUP4 PUSH2 0x856 JUMP JUMPDEST DUP4 PUSH1 0x0 SUB JUMPDEST SWAP2 POP PUSH1 0x0 DUP4 SLT PUSH2 0x866 JUMPI DUP3 PUSH2 0x86B JUMP JUMPDEST DUP3 PUSH1 0x0 SUB JUMPDEST SWAP1 POP PUSH1 0x0 PUSH2 0x879 DUP4 DUP4 PUSH2 0xB7D JUMP JUMPDEST SWAP1 POP PUSH32 0x7FFFFFFFFFFFFFFFFFFFFFFFFFFFFFFFFFFFFFFFFFFFFFFFFFFFFFFFFFFFFFFF DUP2 GT ISZERO PUSH2 0x8E2 JUMPI DUP8 DUP8 PUSH1 0x40 MLOAD PUSH32 0x120B5B4300000000000000000000000000000000000000000000000000000000 DUP2 MSTORE PUSH1 0x4 ADD PUSH2 0x8D9 SWAP3 SWAP2 SWAP1 PUSH2 0x1927 JUMP JUMPDEST PUSH1 0x40 MLOAD DUP1 SWAP2 SUB SWAP1 REVERT JUMPDEST PUSH1 0x0 PUSH32 0xFFFFFFFFFFFFFFFFFFFFFFFFFFFFFFFFFFFFFFFFFFFFFFFFFFFFFFFFFFFFFFFF DUP6 DUP8 XOR SGT SWAP1 POP PUSH2 0x923 DUP2 PUSH2 0x91C JUMPI DUP3 PUSH1 0x0 SUB PUSH2 0x91E JUMP JUMPDEST DUP3 JUMPDEST PUSH2 0x93B JUMP JUMPDEST SWAP7 POP POP POP POP POP POP POP SWAP3 SWAP2 POP POP JUMP JUMPDEST PUSH1 0x0 DUP2 SWAP1 POP SWAP2 SWAP1 POP JUMP JUMPDEST PUSH1 0x0 DUP2 SWAP1 POP SWAP2 SWAP1 POP JUMP JUMPDEST PUSH1 0x0 DUP1 PUSH2 0x951 DUP4 PUSH2 0x931 JUMP JUMPDEST SWAP1 POP PUSH1 0x0 DUP2 SLT ISZERO PUSH2 0x9D8 JUMPI PUSH32 0xFFFFFFFFFFFFFFFFFFFFFFFFFFFFFFFFFFFFFFFFFFFFFFFCC22E87F6EB468EEB DUP2 SLT ISZERO PUSH2 0x98E JUMPI PUSH1 0x0 SWAP2 POP POP PUSH2 0xA5E JUMP JUMPDEST PUSH2 0x9D1 PUSH2 0x9AD PUSH2 0x9A8 PUSH2 0x9A3 DUP5 PUSH1 0x0 SUB PUSH2 0x93B JUMP JUMPDEST PUSH2 0x945 JUMP JUMPDEST PUSH2 0x931 JUMP JUMPDEST PUSH15 0xC097CE7BC90715B34B9F1000000000 DUP2 PUSH2 0x9CB JUMPI PUSH2 0x9CA PUSH2 0x181C JUMP JUMPDEST JUMPDEST SDIV PUSH2 0x93B JUMP JUMPDEST SWAP2 POP PUSH2 0xA5C JUMP JUMPDEST PUSH9 0xA688906BD8AFFFFFF DUP2 SGT ISZERO PUSH2 0xA26 JUMPI DUP3 PUSH1 0x40 MLOAD PUSH32 0x360D02800000000000000000000000000000000000000000000000000000000 DUP2 MSTORE PUSH1 0x4 ADD PUSH2 0xA1D SWAP2 SWAP1 PUSH2 0x1716 JUMP JUMPDEST PUSH1 0x40 MLOAD DUP1 SWAP2 SUB SWAP1 REVERT JUMPDEST PUSH1 0x0 PUSH8 0xDE0B6B3A7640000 PUSH1 0x40 DUP4 SWAP1 SHL DUP2 PUSH2 0xA44 JUMPI PUSH2 0xA43 PUSH2 0x181C JUMP JUMPDEST JUMPDEST SDIV SWAP1 POP PUSH2 0xA58 PUSH2 0xA53 DUP3 PUSH2 0xC67 JUMP JUMPDEST PUSH2 0x93B JUMP JUMPDEST SWAP3 POP POP JUMPDEST POP JUMPDEST SWAP2 SWAP1 POP JUMP JUMPDEST PUSH1 0x0 DUP1 PUSH1 0x0 DUP1 NOT DUP6 DUP8 MULMOD DUP6 DUP8 MUL SWAP3 POP DUP3 DUP2 LT DUP4 DUP3 SUB SUB SWAP2 POP POP PUSH1 0x0 DUP2 SUB PUSH2 0xA9E JUMPI DUP4 DUP3 DUP2 PUSH2 0xA94 JUMPI PUSH2 0xA93 PUSH2 0x181C JUMP JUMPDEST JUMPDEST DIV SWAP3 POP POP POP PUSH2 0xB76 JUMP JUMPDEST DUP4 DUP2 LT PUSH2 0xAE6 JUMPI DUP6 DUP6 DUP6 PUSH1 0x40 MLOAD PUSH32 0x63A0577800000000000000000000000000000000000000000000000000000000 DUP2 MSTORE PUSH1 0x4 ADD PUSH2 0xADD SWAP4 SWAP3 SWAP2 SWAP1 PUSH2 0x1969 JUMP JUMPDEST PUSH1 0x40 MLOAD DUP1 SWAP2 SUB SWAP1 REVERT JUMPDEST PUSH1 0x0 DUP5 DUP7 DUP9 MULMOD SWAP1 POP DUP3 DUP2 GT DUP3 SUB SWAP2 POP DUP1 DUP4 SUB SWAP3 POP PUSH1 0x0 PUSH1 0x1 DUP7 NOT ADD DUP7 AND SWAP1 POP PUSH1 0x0 DUP2 DUP8 DIV SWAP7 POP DUP2 DUP6 DIV SWAP5 POP PUSH1 0x1 DUP3 DUP4 PUSH1 0x0 SUB DIV ADD SWAP1 POP DUP1 DUP5 MUL DUP6 OR SWAP5 POP PUSH1 0x0 PUSH1 0x2 DUP9 PUSH1 0x3 MUL XOR SWAP1 POP DUP1 DUP9 MUL PUSH1 0x2 SUB DUP2 MUL SWAP1 POP DUP1 DUP9 MUL PUSH1 0x2 SUB DUP2 MUL SWAP1 POP DUP1 DUP9 MUL PUSH1 0x2 SUB DUP2 MUL SWAP1 POP DUP1 DUP9 MUL PUSH1 0x2 SUB DUP2 MUL SWAP1 POP DUP1 DUP9 MUL PUSH1 0x2 SUB DUP2 MUL SWAP1 POP DUP1 DUP9 MUL PUSH1 0x2 SUB DUP2 MUL SWAP1 POP DUP1 DUP7 MUL SWAP7 POP POP POP POP POP POP POP JUMPDEST SWAP4 SWAP3 POP POP POP JUMP JUMPDEST PUSH1 0x0 DUP1 PUSH1 0x0 DUP1 NOT DUP5 DUP7 MULMOD DUP5 DUP7 MUL SWAP3 POP DUP3 DUP2 LT DUP4 DUP3 SUB SUB SWAP2 POP POP PUSH1 0x0 DUP2 SUB PUSH2 0xBC0 JUMPI PUSH8 0xDE0B6B3A7640000 DUP3 DUP2 PUSH2 0xBB6 JUMPI PUSH2 0xBB5 PUSH2 0x181C JUMP JUMPDEST JUMPDEST DIV SWAP3 POP POP POP PUSH2 0xC61 JUMP JUMPDEST PUSH8 0xDE0B6B3A7640000 DUP2 LT PUSH2 0xC0E JUMPI DUP5 DUP5 PUSH1 0x40 MLOAD PUSH32 0x5173648D00000000000000000000000000000000000000000000000000000000 DUP2 MSTORE PUSH1 0x4 ADD PUSH2 0xC05 SWAP3 SWAP2 SWAP1 PUSH2 0x19A0 JUMP JUMPDEST PUSH1 0x40 MLOAD DUP1 SWAP2 SUB SWAP1 REVERT JUMPDEST PUSH1 0x0 PUSH8 0xDE0B6B3A7640000 DUP6 DUP8 MULMOD SWAP1 POP PUSH32 0xACCB18165BD6FE31AE1CF318DC5B51EEE0E1BA569B88CD74C1773B91FAC10669 PUSH1 0x1 PUSH3 0x40000 DUP1 PUSH1 0x0 SUB DIV ADD DUP5 DUP4 GT DUP5 SUB MUL PUSH3 0x40000 DUP4 DUP7 SUB DIV OR MUL SWAP4 POP POP POP POP JUMPDEST SWAP3 SWAP2 POP POP JUMP JUMPDEST PUSH1 0x0 PUSH24 0x800000000000000000000000000000000000000000000000 SWAP1 POP PUSH1 0x0 PUSH8 0xFF00000000000000 DUP4 AND GT ISZERO PUSH2 0xDC8 JUMPI PUSH1 0x0 PUSH8 0x8000000000000000 DUP4 AND GT ISZERO PUSH2 0xCBD JUMPI PUSH1 0x40 PUSH9 0x16A09E667F3BCC909 DUP3 MUL SWAP1 SHR SWAP1 POP JUMPDEST PUSH1 0x0 PUSH8 0x4000000000000000 DUP4 AND GT ISZERO PUSH2 0xCE3 JUMPI PUSH1 0x40 PUSH9 0x1306FE0A31B7152DF DUP3 MUL SWAP1 SHR SWAP1 POP JUMPDEST PUSH1 0x0 PUSH8 0x2000000000000000 DUP4 AND GT ISZERO PUSH2 0xD09 JUMPI PUSH1 0x40 PUSH9 0x1172B83C7D517ADCE DUP3 MUL SWAP1 SHR SWAP1 POP JUMPDEST PUSH1 0x0 PUSH8 0x1000000000000000 DUP4 AND GT ISZERO PUSH2 0xD2F JUMPI PUSH1 0x40 PUSH9 0x10B5586CF9890F62A DUP3 MUL SWAP1 SHR SWAP1 POP JUMPDEST PUSH1 0x0 PUSH8 0x800000000000000 DUP4 AND GT ISZERO PUSH2 0xD55 JUMPI PUSH1 0x40 PUSH9 0x1059B0D31585743AE DUP3 MUL SWAP1 SHR SWAP1 POP JUMPDEST PUSH1 0x0 PUSH8 0x400000000000000 DUP4 AND GT ISZERO PUSH2 0xD7B JUMPI PUSH1 0x40 PUSH9 0x102C9A3E778060EE7 DUP3 MUL SWAP1 SHR SWAP1 POP JUMPDEST PUSH1 0x0 PUSH8 0x200000000000000 DUP4 AND GT ISZERO PUSH2 0xDA1 JUMPI PUSH1 0x40 PUSH9 0x10163DA9FB33356D8 DUP3 MUL SWAP1 SHR SWAP1 POP JUMPDEST PUSH1 0x0 PUSH8 0x100000000000000 DUP4 AND GT ISZERO PUSH2 0xDC7 JUMPI PUSH1 0x40 PUSH9 0x100B1AFA5ABCBED61 DUP3 MUL SWAP1 SHR SWAP1 POP JUMPDEST JUMPDEST PUSH1 0x0 PUSH7 0xFF000000000000 DUP4 AND GT ISZERO PUSH2 0xF03 JUMPI PUSH1 0x0 PUSH7 0x80000000000000 DUP4 AND GT ISZERO PUSH2 0xDFF JUMPI PUSH1 0x40 PUSH9 0x10058C86DA1C09EA2 DUP3 MUL SWAP1 SHR SWAP1 POP JUMPDEST PUSH1 0x0 PUSH7 0x40000000000000 DUP4 AND GT ISZERO PUSH2 0xE24 JUMPI PUSH1 0x40 PUSH9 0x1002C605E2E8CEC50 DUP3 MUL SWAP1 SHR SWAP1 POP JUMPDEST PUSH1 0x0 PUSH7 0x20000000000000 DUP4 AND GT ISZERO PUSH2 0xE49 JUMPI PUSH1 0x40 PUSH9 0x100162F3904051FA1 DUP3 MUL SWAP1 SHR SWAP1 POP JUMPDEST PUSH1 0x0 PUSH7 0x10000000000000 DUP4 AND GT ISZERO PUSH2 0xE6E JUMPI PUSH1 0x40 PUSH9 0x1000B175EFFDC76BA DUP3 MUL SWAP1 SHR SWAP1 POP JUMPDEST PUSH1 0x0 PUSH7 0x8000000000000 DUP4 AND GT ISZERO PUSH2 0xE93 JUMPI PUSH1 0x40 PUSH9 0x100058BA01FB9F96D DUP3 MUL SWAP1 SHR SWAP1 POP JUMPDEST PUSH1 0x0 PUSH7 0x4000000000000 DUP4 AND GT ISZERO PUSH2 0xEB8 JUMPI PUSH1 0x40 PUSH9 0x10002C5CC37DA9492 DUP3 MUL SWAP1 SHR SWAP1 POP JUMPDEST PUSH1 0x0 PUSH7 0x2000000000000 DUP4 AND GT ISZERO PUSH2 0xEDD JUMPI PUSH1 0x40 PUSH9 0x1000162E525EE0547 DUP3 MUL SWAP1 SHR SWAP1 POP JUMPDEST PUSH1 0x0 PUSH7 0x1000000000000 DUP4 AND GT ISZERO PUSH2 0xF02 JUMPI PUSH1 0x40 PUSH9 0x10000B17255775C04 DUP3 MUL SWAP1 SHR SWAP1 POP JUMPDEST JUMPDEST PUSH1 0x0 PUSH6 0xFF0000000000 DUP4 AND GT ISZERO PUSH2 0x1035 JUMPI PUSH1 0x0 PUSH6 0x800000000000 DUP4 AND GT ISZERO PUSH2 0xF38 JUMPI PUSH1 0x40 PUSH9 0x1000058B91B5BC9AE DUP3 MUL SWAP1 SHR SWAP1 POP JUMPDEST PUSH1 0x0 PUSH6 0x400000000000 DUP4 AND GT ISZERO PUSH2 0xF5C JUMPI PUSH1 0x40 PUSH9 0x100002C5C89D5EC6D DUP3 MUL SWAP1 SHR SWAP1 POP JUMPDEST PUSH1 0x0 PUSH6 0x200000000000 DUP4 AND GT ISZERO PUSH2 0xF80 JUMPI PUSH1 0x40 PUSH9 0x10000162E43F4F831 DUP3 MUL SWAP1 SHR SWAP1 POP JUMPDEST PUSH1 0x0 PUSH6 0x100000000000 DUP4 AND GT ISZERO PUSH2 0xFA4 JUMPI PUSH1 0x40 PUSH9 0x100000B1721BCFC9A DUP3 MUL SWAP1 SHR SWAP1 POP JUMPDEST PUSH1 0x0 PUSH6 0x80000000000 DUP4 AND GT ISZERO PUSH2 0xFC8 JUMPI PUSH1 0x40 PUSH9 0x10000058B90CF1E6E DUP3 MUL SWAP1 SHR SWAP1 POP JUMPDEST PUSH1 0x0 PUSH6 0x40000000000 DUP4 AND GT ISZERO PUSH2 0xFEC JUMPI PUSH1 0x40 PUSH9 0x1000002C5C863B73F DUP3 MUL SWAP1 SHR SWAP1 POP JUMPDEST PUSH1 0x0 PUSH6 0x20000000000 DUP4 AND GT ISZERO PUSH2 0x1010 JUMPI PUSH1 0x40 PUSH9 0x100000162E430E5A2 DUP3 MUL SWAP1 SHR SWAP1 POP JUMPDEST PUSH1 0x0 PUSH6 0x10000000000 DUP4 AND GT ISZERO PUSH2 0x1034 JUMPI PUSH1 0x40 PUSH9 0x1000000B172183551 DUP3 MUL SWAP1 SHR SWAP1 POP JUMPDEST JUMPDEST PUSH1 0x0 PUSH5 0xFF00000000 DUP4 AND GT ISZERO PUSH2 0x115E JUMPI PUSH1 0x0 PUSH5 0x8000000000 DUP4 AND GT ISZERO PUSH2 0x1068 JUMPI PUSH1 0x40 PUSH9 0x100000058B90C0B49 DUP3 MUL SWAP1 SHR SWAP1 POP JUMPDEST PUSH1 0x0 PUSH5 0x4000000000 DUP4 AND GT ISZERO PUSH2 0x108B JUMPI PUSH1 0x40 PUSH9 0x10000002C5C8601CC DUP3 MUL SWAP1 SHR SWAP1 POP JUMPDEST PUSH1 0x0 PUSH5 0x2000000000 DUP4 AND GT ISZERO PUSH2 0x10AE JUMPI PUSH1 0x40 PUSH9 0x1000000162E42FFF0 DUP3 MUL SWAP1 SHR SWAP1 POP JUMPDEST PUSH1 0x0 PUSH5 0x1000000000 DUP4 AND GT ISZERO PUSH2 0x10D1 JUMPI PUSH1 0x40 PUSH9 0x10000000B17217FBB DUP3 MUL SWAP1 SHR SWAP1 POP JUMPDEST PUSH1 0x0 PUSH5 0x800000000 DUP4 AND GT ISZERO PUSH2 0x10F4 JUMPI PUSH1 0x40 PUSH9 0x1000000058B90BFCE DUP3 MUL SWAP1 SHR SWAP1 POP JUMPDEST PUSH1 0x0 PUSH5 0x400000000 DUP4 AND GT ISZERO PUSH2 0x1117 JUMPI PUSH1 0x40 PUSH9 0x100000002C5C85FE3 DUP3 MUL SWAP1 SHR SWAP1 POP JUMPDEST PUSH1 0x0 PUSH5 0x200000000 DUP4 AND GT ISZERO PUSH2 0x113A JUMPI PUSH1 0x40 PUSH9 0x10000000162E42FF1 DUP3 MUL SWAP1 SHR SWAP1 POP JUMPDEST PUSH1 0x0 PUSH5 0x100000000 DUP4 AND GT ISZERO PUSH2 0x115D JUMPI PUSH1 0x40 PUSH9 0x100000000B17217F8 DUP3 MUL SWAP1 SHR SWAP1 POP JUMPDEST JUMPDEST PUSH1 0x0 PUSH4 0xFF000000 DUP4 AND GT ISZERO PUSH2 0x127E JUMPI PUSH1 0x0 PUSH4 0x80000000 DUP4 AND GT ISZERO PUSH2 0x118F JUMPI PUSH1 0x40 PUSH9 0x10000000058B90BFC DUP3 MUL SWAP1 SHR SWAP1 POP JUMPDEST PUSH1 0x0 PUSH4 0x40000000 DUP4 AND GT ISZERO PUSH2 0x11B1 JUMPI PUSH1 0x40 PUSH9 0x1000000002C5C85FE DUP3 MUL SWAP1 SHR SWAP1 POP JUMPDEST PUSH1 0x0 PUSH4 0x20000000 DUP4 AND GT ISZERO PUSH2 0x11D3 JUMPI PUSH1 0x40 PUSH9 0x100000000162E42FF DUP3 MUL SWAP1 SHR SWAP1 POP JUMPDEST PUSH1 0x0 PUSH4 0x10000000 DUP4 AND GT ISZERO PUSH2 0x11F5 JUMPI PUSH1 0x40 PUSH9 0x1000000000B17217F DUP3 MUL SWAP1 SHR SWAP1 POP JUMPDEST PUSH1 0x0 PUSH4 0x8000000 DUP4 AND GT ISZERO PUSH2 0x1217 JUMPI PUSH1 0x40 PUSH9 0x100000000058B90C0 DUP3 MUL SWAP1 SHR SWAP1 POP JUMPDEST PUSH1 0x0 PUSH4 0x4000000 DUP4 AND GT ISZERO PUSH2 0x1239 JUMPI PUSH1 0x40 PUSH9 0x10000000002C5C860 DUP3 MUL SWAP1 SHR SWAP1 POP JUMPDEST PUSH1 0x0 PUSH4 0x2000000 DUP4 AND GT ISZERO PUSH2 0x125B JUMPI PUSH1 0x40 PUSH9 0x1000000000162E430 DUP3 MUL SWAP1 SHR SWAP1 POP JUMPDEST PUSH1 0x0 PUSH4 0x1000000 DUP4 AND GT ISZERO PUSH2 0x127D JUMPI PUSH1 0x40 PUSH9 0x10000000000B17218 DUP3 MUL SWAP1 SHR SWAP1 POP JUMPDEST JUMPDEST PUSH1 0x0 PUSH3 0xFF0000 DUP4 AND GT ISZERO PUSH2 0x1395 JUMPI PUSH1 0x0 PUSH3 0x800000 DUP4 AND GT ISZERO PUSH2 0x12AD JUMPI PUSH1 0x40 PUSH9 0x1000000000058B90C DUP3 MUL SWAP1 SHR SWAP1 POP JUMPDEST PUSH1 0x0 PUSH3 0x400000 DUP4 AND GT ISZERO PUSH2 0x12CE JUMPI PUSH1 0x40 PUSH9 0x100000000002C5C86 DUP3 MUL SWAP1 SHR SWAP1 POP JUMPDEST PUSH1 0x0 PUSH3 0x200000 DUP4 AND GT ISZERO PUSH2 0x12EF JUMPI PUSH1 0x40 PUSH9 0x10000000000162E43 DUP3 MUL SWAP1 SHR SWAP1 POP JUMPDEST PUSH1 0x0 PUSH3 0x100000 DUP4 AND GT ISZERO PUSH2 0x1310 JUMPI PUSH1 0x40 PUSH9 0x100000000000B1721 DUP3 MUL SWAP1 SHR SWAP1 POP JUMPDEST PUSH1 0x0 PUSH3 0x80000 DUP4 AND GT ISZERO PUSH2 0x1331 JUMPI PUSH1 0x40 PUSH9 0x10000000000058B91 DUP3 MUL SWAP1 SHR SWAP1 POP JUMPDEST PUSH1 0x0 PUSH3 0x40000 DUP4 AND GT ISZERO PUSH2 0x1352 JUMPI PUSH1 0x40 PUSH9 0x1000000000002C5C8 DUP3 MUL SWAP1 SHR SWAP1 POP JUMPDEST PUSH1 0x0 PUSH3 0x20000 DUP4 AND GT ISZERO PUSH2 0x1373 JUMPI PUSH1 0x40 PUSH9 0x100000000000162E4 DUP3 MUL SWAP1 SHR SWAP1 POP JUMPDEST PUSH1 0x0 PUSH3 0x10000 DUP4 AND GT ISZERO PUSH2 0x1394 JUMPI PUSH1 0x40 PUSH9 0x1000000000000B172 DUP3 MUL SWAP1 SHR SWAP1 POP JUMPDEST JUMPDEST PUSH1 0x0 PUSH2 0xFF00 DUP4 AND GT ISZERO PUSH2 0x14A3 JUMPI PUSH1 0x0 PUSH2 0x8000 DUP4 AND GT ISZERO PUSH2 0x13C2 JUMPI PUSH1 0x40 PUSH9 0x100000000000058B9 DUP3 MUL SWAP1 SHR SWAP1 POP JUMPDEST PUSH1 0x0 PUSH2 0x4000 DUP4 AND GT ISZERO PUSH2 0x13E2 JUMPI PUSH1 0x40 PUSH9 0x10000000000002C5D DUP3 MUL SWAP1 SHR SWAP1 POP JUMPDEST PUSH1 0x0 PUSH2 0x2000 DUP4 AND GT ISZERO PUSH2 0x1402 JUMPI PUSH1 0x40 PUSH9 0x1000000000000162E DUP3 MUL SWAP1 SHR SWAP1 POP JUMPDEST PUSH1 0x0 PUSH2 0x1000 DUP4 AND GT ISZERO PUSH2 0x1422 JUMPI PUSH1 0x40 PUSH9 0x10000000000000B17 DUP3 MUL SWAP1 SHR SWAP1 POP JUMPDEST PUSH1 0x0 PUSH2 0x800 DUP4 AND GT ISZERO PUSH2 0x1442 JUMPI PUSH1 0x40 PUSH9 0x1000000000000058C DUP3 MUL SWAP1 SHR SWAP1 POP JUMPDEST PUSH1 0x0 PUSH2 0x400 DUP4 AND GT ISZERO PUSH2 0x1462 JUMPI PUSH1 0x40 PUSH9 0x100000000000002C6 DUP3 MUL SWAP1 SHR SWAP1 POP JUMPDEST PUSH1 0x0 PUSH2 0x200 DUP4 AND GT ISZERO PUSH2 0x1482 JUMPI PUSH1 0x40 PUSH9 0x10000000000000163 DUP3 MUL SWAP1 SHR SWAP1 POP JUMPDEST PUSH1 0x0 PUSH2 0x100 DUP4 AND GT ISZERO PUSH2 0x14A2 JUMPI PUSH1 0x40 PUSH9 0x100000000000000B1 DUP3 MUL SWAP1 SHR SWAP1 POP JUMPDEST JUMPDEST PUSH1 0x0 PUSH1 0xFF DUP4 AND GT ISZERO PUSH2 0x15A8 JUMPI PUSH1 0x0 PUSH1 0x80 DUP4 AND GT ISZERO PUSH2 0x14CE JUMPI PUSH1 0x40 PUSH9 0x10000000000000059 DUP3 MUL SWAP1 SHR SWAP1 POP JUMPDEST PUSH1 0x0 PUSH1 0x40 DUP4 AND GT ISZERO PUSH2 0x14ED JUMPI PUSH1 0x40 PUSH9 0x1000000000000002C DUP3 MUL SWAP1 SHR SWAP1 POP JUMPDEST PUSH1 0x0 PUSH1 0x20 DUP4 AND GT ISZERO PUSH2 0x150C JUMPI PUSH1 0x40 PUSH9 0x10000000000000016 DUP3 MUL SWAP1 SHR SWAP1 POP JUMPDEST PUSH1 0x0 PUSH1 0x10 DUP4 AND GT ISZERO PUSH2 0x152B JUMPI PUSH1 0x40 PUSH9 0x1000000000000000B DUP3 MUL SWAP1 SHR SWAP1 POP JUMPDEST PUSH1 0x0 PUSH1 0x8 DUP4 AND GT ISZERO PUSH2 0x154A JUMPI PUSH1 0x40 PUSH9 0x10000000000000006 DUP3 MUL SWAP1 SHR SWAP1 POP JUMPDEST PUSH1 0x0 PUSH1 0x4 DUP4 AND GT ISZERO PUSH2 0x1569 JUMPI PUSH1 0x40 PUSH9 0x10000000000000003 DUP3 MUL SWAP1 SHR SWAP1 POP JUMPDEST PUSH1 0x0 PUSH1 0x2 DUP4 AND GT ISZERO PUSH2 0x1588 JUMPI PUSH1 0x40 PUSH9 0x10000000000000001 DUP3 MUL SWAP1 SHR SWAP1 POP JUMPDEST PUSH1 0x0 PUSH1 0x1 DUP4 AND GT ISZERO PUSH2 0x15A7 JUMPI PUSH1 0x40 PUSH9 0x10000000000000001 DUP3 MUL SWAP1 SHR SWAP1 POP JUMPDEST JUMPDEST PUSH8 0xDE0B6B3A7640000 DUP2 MUL SWAP1 POP PUSH1 0x40 DUP3 SWAP1 SHR PUSH1 0xBF SUB DUP2 SWAP1 SHR SWAP1 POP SWAP2 SWAP1 POP JUMP JUMPDEST PUSH1 0x0 DUP1 REVERT JUMPDEST PUSH1 0x0 DUP2 SWAP1 POP SWAP2 SWAP1 POP JUMP JUMPDEST PUSH2 0x15DF DUP2 PUSH2 0x15CC JUMP JUMPDEST DUP2 EQ PUSH2 0x15EA JUMPI PUSH1 0x0 DUP1 REVERT JUMPDEST POP JUMP JUMPDEST PUSH1 0x0 DUP2 CALLDATALOAD SWAP1 POP PUSH2 0x15FC DUP2 PUSH2 0x15D6 JUMP JUMPDEST SWAP3 SWAP2 POP POP JUMP JUMPDEST PUSH1 0x0 DUP1 PUSH1 0x40 DUP4 DUP6 SUB SLT ISZERO PUSH2 0x1619 JUMPI PUSH2 0x1618 PUSH2 0x15C7 JUMP JUMPDEST JUMPDEST PUSH1 0x0 PUSH2 0x1627 DUP6 DUP3 DUP7 ADD PUSH2 0x15ED JUMP JUMPDEST SWAP3 POP POP PUSH1 0x20 PUSH2 0x1638 DUP6 DUP3 DUP7 ADD PUSH2 0x15ED JUMP JUMPDEST SWAP2 POP POP SWAP3 POP SWAP3 SWAP1 POP JUMP JUMPDEST PUSH2 0x164B DUP2 PUSH2 0x15CC JUMP JUMPDEST DUP2 EQ PUSH2 0x1656 JUMPI PUSH1 0x0 DUP1 REVERT JUMPDEST POP JUMP JUMPDEST PUSH1 0x0 DUP2 CALLDATALOAD SWAP1 POP PUSH2 0x1668 DUP2 PUSH2 0x1642 JUMP JUMPDEST SWAP3 SWAP2 POP POP JUMP JUMPDEST PUSH1 0x0 DUP1 PUSH1 0x40 DUP4 DUP6 SUB SLT ISZERO PUSH2 0x1685 JUMPI PUSH2 0x1684 PUSH2 0x15C7 JUMP JUMPDEST JUMPDEST PUSH1 0x0 PUSH2 0x1693 DUP6 DUP3 DUP7 ADD PUSH2 0x1659 JUMP JUMPDEST SWAP3 POP POP PUSH1 0x20 PUSH2 0x16A4 DUP6 DUP3 DUP7 ADD PUSH2 0x1659 JUMP JUMPDEST SWAP2 POP POP SWAP3 POP SWAP3 SWAP1 POP JUMP JUMPDEST PUSH1 0x0 PUSH1 0x20 DUP3 DUP5 SUB SLT ISZERO PUSH2 0x16C4 JUMPI PUSH2 0x16C3 PUSH2 0x15C7 JUMP JUMPDEST JUMPDEST PUSH1 0x0 PUSH2 0x16D2 DUP5 DUP3 DUP6 ADD PUSH2 0x1659 JUMP JUMPDEST SWAP2 POP POP SWAP3 SWAP2 POP POP JUMP JUMPDEST PUSH1 0x0 DUP2 SWAP1 POP SWAP2 SWAP1 POP JUMP JUMPDEST PUSH1 0x0 PUSH2 0x1700 PUSH2 0x16FB PUSH2 0x16F6 DUP5 PUSH2 0x15CC JUMP JUMPDEST PUSH2 0x16DB JUMP JUMPDEST PUSH2 0x15CC JUMP JUMPDEST SWAP1 POP SWAP2 SWAP1 POP JUMP JUMPDEST PUSH2 0x1710 DUP2 PUSH2 0x16E5 JUMP JUMPDEST DUP3 MSTORE POP POP JUMP JUMPDEST PUSH1 0x0 PUSH1 0x20 DUP3 ADD SWAP1 POP PUSH2 0x172B PUSH1 0x0 DUP4 ADD DUP5 PUSH2 0x1707 JUMP JUMPDEST SWAP3 SWAP2 POP POP JUMP JUMPDEST PUSH32 0x4E487B7100000000000000000000000000000000000000000000000000000000 PUSH1 0x0 MSTORE PUSH1 0x11 PUSH1 0x4 MSTORE PUSH1 0x24 PUSH1 0x0 REVERT JUMPDEST PUSH1 0x0 PUSH2 0x176B DUP3 PUSH2 0x15CC JUMP JUMPDEST SWAP2 POP PUSH2 0x1776 DUP4 PUSH2 0x15CC JUMP JUMPDEST SWAP3 POP DUP3 DUP3 MUL PUSH2 0x1784 DUP2 PUSH2 0x15CC JUMP JUMPDEST SWAP2 POP PUSH32 0x8000000000000000000000000000000000000000000000000000000000000000 DUP5 EQ PUSH1 0x0 DUP5 SLT AND ISZERO PUSH2 0x17BC JUMPI PUSH2 0x17BB PUSH2 0x1731 JUMP JUMPDEST JUMPDEST DUP3 DUP3 SDIV DUP5 EQ DUP4 ISZERO OR PUSH2 0x17D1 JUMPI PUSH2 0x17D0 PUSH2 0x1731 JUMP JUMPDEST JUMPDEST POP SWAP3 SWAP2 POP POP JUMP JUMPDEST PUSH1 0x0 PUSH2 0x17E3 DUP3 PUSH2 0x15CC JUMP JUMPDEST SWAP2 POP PUSH2 0x17EE DUP4 PUSH2 0x15CC JUMP JUMPDEST SWAP3 POP DUP3 DUP3 ADD SWAP1 POP DUP3 DUP2 SLT ISZERO PUSH1 0x0 DUP4 SLT AND DUP4 DUP3 SLT PUSH1 0x0 DUP5 SLT ISZERO AND OR ISZERO PUSH2 0x1816 JUMPI PUSH2 0x1815 PUSH2 0x1731 JUMP JUMPDEST JUMPDEST SWAP3 SWAP2 POP POP JUMP JUMPDEST PUSH32 0x4E487B7100000000000000000000000000000000000000000000000000000000 PUSH1 0x0 MSTORE PUSH1 0x12 PUSH1 0x4 MSTORE PUSH1 0x24 PUSH1 0x0 REVERT JUMPDEST PUSH1 0x0 PUSH2 0x1856 DUP3 PUSH2 0x15CC JUMP JUMPDEST SWAP2 POP PUSH2 0x1861 DUP4 PUSH2 0x15CC JUMP JUMPDEST SWAP3 POP DUP3 PUSH2 0x1871 JUMPI PUSH2 0x1870 PUSH2 0x181C JUMP JUMPDEST JUMPDEST PUSH1 0x1 PUSH1 0x0 SUB DUP4 EQ PUSH32 0x8000000000000000000000000000000000000000000000000000000000000000 DUP4 EQ AND ISZERO PUSH2 0x18AA JUMPI PUSH2 0x18A9 PUSH2 0x1731 JUMP JUMPDEST JUMPDEST DUP3 DUP3 SDIV SWAP1 POP SWAP3 SWAP2 POP POP JUMP JUMPDEST PUSH2 0x18BE DUP2 PUSH2 0x15CC JUMP JUMPDEST DUP3 MSTORE POP POP JUMP JUMPDEST PUSH1 0x0 PUSH1 0x20 DUP3 ADD SWAP1 POP PUSH2 0x18D9 PUSH1 0x0 DUP4 ADD DUP5 PUSH2 0x18B5 JUMP JUMPDEST SWAP3 SWAP2 POP POP JUMP JUMPDEST PUSH1 0x0 PUSH2 0x18EA DUP3 PUSH2 0x15CC JUMP JUMPDEST SWAP2 POP PUSH32 0x8000000000000000000000000000000000000000000000000000000000000000 DUP3 SUB PUSH2 0x191C JUMPI PUSH2 0x191B PUSH2 0x1731 JUMP JUMPDEST JUMPDEST DUP2 PUSH1 0x0 SUB SWAP1 POP SWAP2 SWAP1 POP JUMP JUMPDEST PUSH1 0x0 PUSH1 0x40 DUP3 ADD SWAP1 POP PUSH2 0x193C PUSH1 0x0 DUP4 ADD DUP6 PUSH2 0x1707 JUMP JUMPDEST PUSH2 0x1949 PUSH1 0x20 DUP4 ADD DUP5 PUSH2 0x1707 JUMP JUMPDEST SWAP4 SWAP3 POP POP POP JUMP JUMPDEST PUSH1 0x0 DUP2 SWAP1 POP SWAP2 SWAP1 POP JUMP JUMPDEST PUSH2 0x1963 DUP2 PUSH2 0x1950 JUMP JUMPDEST DUP3 MSTORE POP POP JUMP JUMPDEST PUSH1 0x0 PUSH1 0x60 DUP3 ADD SWAP1 POP PUSH2 0x197E PUSH1 0x0 DUP4 ADD DUP7 PUSH2 0x195A JUMP JUMPDEST PUSH2 0x198B PUSH1 0x20 DUP4 ADD DUP6 PUSH2 0x195A JUMP JUMPDEST PUSH2 0x1998 PUSH1 0x40 DUP4 ADD DUP5 PUSH2 0x195A JUMP JUMPDEST SWAP5 SWAP4 POP POP POP POP JUMP JUMPDEST PUSH1 0x0 PUSH1 0x40 DUP3 ADD SWAP1 POP PUSH2 0x19B5 PUSH1 0x0 DUP4 ADD DUP6 PUSH2 0x195A JUMP JUMPDEST PUSH2 0x19C2 PUSH1 0x20 DUP4 ADD DUP5 PUSH2 0x195A JUMP JUMPDEST SWAP4 SWAP3 POP POP POP JUMP INVALID LOG2 PUSH5 0x6970667358 0x22 SLT KECCAK256 0xA8 RETURNDATACOPY 0xAB 0x4E 0x2B PUSH32 0xF49FCCD135CE65D125A5ECD04250EC99DEAD072888C70D37B93064736F6C6343 STOP ADDMOD EQ STOP CALLER "},"methodIdentifiers":{"add_1(int256,int256)":"e7ec9064","add_2(int256,int256)":"2a15c7c4","add_prb_1(int256,int256)":"4daa569c","add_prb_2(int256,int256)":"b19cdbce","div_1(int256,int256)":"da36f37a","div_2(int256,int256)":"f84bef99","div_prb_1(int256,int256)":"a3d08650","div_prb_2(int256,int256)":"9713342d","mul_1(int256,int256)":"c4a986fd","mul_2(int256,int256)":"1d1a27d1","mul_prb_1(int256,int256)":"b3c9d9e0","mul_prb_2(int256,int256)":"b87f1e0c","relu(int256)":"94d5e4c2","sigmoid(int256)":"67fe9add"}}}}}