{
  "_format": "hh-sol-artifact-1",
  "contractName": "MLP_2L_4n",
  "sourceName": "contracts/MLP_2L_4n.sol",
  "abi": [
    {
      "inputs": [
        {
          "internalType": "uint256",
          "name": "layer_num",
          "type": "uint256"
        }
      ],
      "stateMutability": "nonpayable",
      "type": "constructor"
    },
    {
      "inputs": [
        {
          "internalType": "uint256",
          "name": "x",
          "type": "uint256"
        },
        {
          "internalType": "uint256",
          "name": "y",
          "type": "uint256"
        }
      ],
      "name": "PRBMath_MulDiv18_Overflow",
      "type": "error"
    },
    {
      "inputs": [
        {
          "internalType": "uint256",
          "name": "x",
          "type": "uint256"
        },
        {
          "internalType": "uint256",
          "name": "y",
          "type": "uint256"
        },
        {
          "internalType": "uint256",
          "name": "denominator",
          "type": "uint256"
        }
      ],
      "name": "PRBMath_MulDiv_Overflow",
      "type": "error"
    },
    {
      "inputs": [
        {
          "internalType": "int256",
          "name": "x",
          "type": "int256"
        }
      ],
      "name": "PRBMath_SD59x18_Convert_Overflow",
      "type": "error"
    },
    {
      "inputs": [
        {
          "internalType": "int256",
          "name": "x",
          "type": "int256"
        }
      ],
      "name": "PRBMath_SD59x18_Convert_Underflow",
      "type": "error"
    },
    {
      "inputs": [],
      "name": "PRBMath_SD59x18_Div_InputTooSmall",
      "type": "error"
    },
    {
      "inputs": [
        {
          "internalType": "SD59x18",
          "name": "x",
          "type": "int256"
        },
        {
          "internalType": "SD59x18",
          "name": "y",
          "type": "int256"
        }
      ],
      "name": "PRBMath_SD59x18_Div_Overflow",
      "type": "error"
    },
    {
      "inputs": [
        {
          "internalType": "SD59x18",
          "name": "x",
          "type": "int256"
        }
      ],
      "name": "PRBMath_SD59x18_Exp2_InputTooBig",
      "type": "error"
    },
    {
      "inputs": [
        {
          "internalType": "SD59x18",
          "name": "x",
          "type": "int256"
        }
      ],
      "name": "PRBMath_SD59x18_Exp_InputTooBig",
      "type": "error"
    },
    {
      "inputs": [],
      "name": "PRBMath_SD59x18_Mul_InputTooSmall",
      "type": "error"
    },
    {
      "inputs": [
        {
          "internalType": "SD59x18",
          "name": "x",
          "type": "int256"
        },
        {
          "internalType": "SD59x18",
          "name": "y",
          "type": "int256"
        }
      ],
      "name": "PRBMath_SD59x18_Mul_Overflow",
      "type": "error"
    },
    {
      "inputs": [
        {
          "internalType": "uint256",
          "name": "",
          "type": "uint256"
        },
        {
          "internalType": "uint256",
          "name": "",
          "type": "uint256"
        }
      ],
      "name": "biases",
      "outputs": [
        {
          "internalType": "int256",
          "name": "",
          "type": "int256"
        }
      ],
      "stateMutability": "view",
      "type": "function"
    },
    {
      "inputs": [],
      "name": "classify",
      "outputs": [
        {
          "internalType": "int256",
          "name": "",
          "type": "int256"
        }
      ],
      "stateMutability": "view",
      "type": "function"
    },
    {
      "inputs": [],
      "name": "correct_Count",
      "outputs": [
        {
          "internalType": "int256",
          "name": "",
          "type": "int256"
        }
      ],
      "stateMutability": "view",
      "type": "function"
    },
    {
      "inputs": [
        {
          "internalType": "SD59x18",
          "name": "x",
          "type": "int256"
        }
      ],
      "name": "relu",
      "outputs": [
        {
          "internalType": "SD59x18",
          "name": "",
          "type": "int256"
        }
      ],
      "stateMutability": "pure",
      "type": "function"
    },
    {
      "inputs": [
        {
          "internalType": "uint256",
          "name": "layer",
          "type": "uint256"
        },
        {
          "internalType": "int256[]",
          "name": "b",
          "type": "int256[]"
        }
      ],
      "name": "set_Biases",
      "outputs": [],
      "stateMutability": "nonpayable",
      "type": "function"
    },
    {
      "inputs": [
        {
          "internalType": "int256[]",
          "name": "d",
          "type": "int256[]"
        }
      ],
      "name": "set_TrainingData",
      "outputs": [],
      "stateMutability": "nonpayable",
      "type": "function"
    },
    {
      "inputs": [
        {
          "internalType": "uint256",
          "name": "layer",
          "type": "uint256"
        },
        {
          "internalType": "int256[]",
          "name": "w",
          "type": "int256[]"
        }
      ],
      "name": "set_Weights",
      "outputs": [],
      "stateMutability": "nonpayable",
      "type": "function"
    },
    {
      "inputs": [
        {
          "internalType": "SD59x18",
          "name": "x",
          "type": "int256"
        }
      ],
      "name": "sigmoid",
      "outputs": [
        {
          "internalType": "SD59x18",
          "name": "",
          "type": "int256"
        }
      ],
      "stateMutability": "pure",
      "type": "function"
    },
    {
      "inputs": [
        {
          "internalType": "uint256",
          "name": "",
          "type": "uint256"
        },
        {
          "internalType": "uint256",
          "name": "",
          "type": "uint256"
        }
      ],
      "name": "training_data",
      "outputs": [
        {
          "internalType": "int256",
          "name": "",
          "type": "int256"
        }
      ],
      "stateMutability": "view",
      "type": "function"
    },
    {
      "inputs": [],
      "name": "view_dataset_size",
      "outputs": [
        {
          "internalType": "uint256",
          "name": "size",
          "type": "uint256"
        }
      ],
      "stateMutability": "view",
      "type": "function"
    },
    {
      "inputs": [
        {
          "internalType": "uint256",
          "name": "",
          "type": "uint256"
        },
        {
          "internalType": "uint256",
          "name": "",
          "type": "uint256"
        }
      ],
      "name": "weights_layer1",
      "outputs": [
        {
          "internalType": "int256",
          "name": "",
          "type": "int256"
        }
      ],
      "stateMutability": "view",
      "type": "function"
    },
    {
      "inputs": [
        {
          "internalType": "uint256",
          "name": "",
          "type": "uint256"
        },
        {
          "internalType": "uint256",
          "name": "",
          "type": "uint256"
        }
      ],
      "name": "weights_layer2",
      "outputs": [
        {
          "internalType": "int256",
          "name": "",
          "type": "int256"
        }
      ],
      "stateMutability": "view",
      "type": "function"
    }
  ],
  "bytecode": "0x60806040523480156200001157600080fd5b506040516200299d3803806200299d833981810160405281019062000037919062000318565b8067ffffffffffffffff8111156200005457620000536200034a565b5b6040519080825280602002602001820160405280156200008957816020015b6060815260200190600190039081620000735790505b5060029080519060200190620000a1929190620001b5565b50600467ffffffffffffffff811115620000c057620000bf6200034a565b5b604051908082528060200260200182016040528015620000ef5781602001602082028036833780820191505090505b50600260008154811062000108576200010762000379565b5b906000526020600020019080519060200190620001279291906200021c565b50600167ffffffffffffffff8111156200014657620001456200034a565b5b604051908082528060200260200182016040528015620001755781602001602082028036833780820191505090505b5060026001815481106200018e576200018d62000379565b5b906000526020600020019080519060200190620001ad9291906200021c565b5050620003a8565b82805482825590600052602060002090810192821562000209579160200282015b8281111562000208578251829080519060200190620001f79291906200021c565b5091602001919060010190620001d6565b5b5090506200021891906200026e565b5090565b8280548282559060005260206000209081019282156200025b579160200282015b828111156200025a5782518255916020019190600101906200023d565b5b5090506200026a919062000296565b5090565b5b80821115620002925760008181620002889190620002b5565b506001016200026f565b5090565b5b80821115620002b157600081600090555060010162000297565b5090565b5080546000825590600052602060002090810190620002d5919062000296565b50565b600080fd5b6000819050919050565b620002f281620002dd565b8114620002fe57600080fd5b50565b6000815190506200031281620002e7565b92915050565b600060208284031215620003315762000330620002d8565b5b6000620003418482850162000301565b91505092915050565b7f4e487b7100000000000000000000000000000000000000000000000000000000600052604160045260246000fd5b7f4e487b7100000000000000000000000000000000000000000000000000000000600052603260045260246000fd5b6125e580620003b86000396000f3fe608060405234801561001057600080fd5b50600436106100b45760003560e01c8063b46cbc1111610071578063b46cbc111461019f578063b4811067146101bb578063c3c1ade2146101d9578063d4b8385c14610209578063d81f22ad14610227578063f574f06914610257576100b4565b806367fe9add146100b95780638267aff6146100e95780638eca473b14610105578063937de1221461012157806394d5e4c214610151578063a802964f14610181575b600080fd5b6100d360048036038101906100ce9190611f42565b610287565b6040516100e09190611faa565b60405180910390f35b61010360048036038101906100fe9190612060565b6102d9565b005b61011f600480360381019061011a91906120c0565b610372565b005b61013b6004803603810190610136919061210d565b61045e565b604051610148919061215c565b60405180910390f35b61016b60048036038101906101669190611f42565b61049b565b6040516101789190611faa565b60405180910390f35b6101896104dc565b604051610196919061215c565b60405180910390f35b6101b960048036038101906101b49190612060565b6109f2565b005b6101c3610b75565b6040516101d09190612186565b60405180910390f35b6101f360048036038101906101ee919061210d565b610b82565b604051610200919061215c565b60405180910390f35b610211610bbf565b60405161021e919061215c565b60405180910390f35b610241600480360381019061023c919061210d565b610bc5565b60405161024e919061215c565b60405180910390f35b610271600480360381019061026c919061210d565b610c02565b60405161027e919061215c565b60405180910390f35b60008060019050600061029982610c3f565b90506102d06102c16102b26102ad87610d43565b610d66565b83610e3690919063ffffffff16565b82610e6490919063ffffffff16565b92505050919050565b600283815481106102ed576102ec6121a1565b5b9060005260206000200180549050828290501461033f576040517f08c379a000000000000000000000000000000000000000000000000000000000815260040161033690612253565b60405180910390fd5b818160028581548110610355576103546121a1565b5b90600052602060002001919061036c929190611e4b565b50505050565b60008282905067ffffffffffffffff81111561039157610390612273565b5b6040519080825280602002602001820160405280156103bf5781602001602082028036833780820191505090505b50905060005b8383905081101561041c578383828181106103e3576103e26121a1565b5b905060200201358282815181106103fd576103fc6121a1565b5b6020026020010181815250508080610414906122d1565b9150506103c5565b50600381908060018154018082558091505060019003906000526020600020016000909190919091509080519060200190610458929190611e98565b50505050565b6001828154811061046e57600080fd5b90600052602060002001818154811061048657600080fd5b90600052602060002001600091509150505481565b6000806000905060006104ad82610c3f565b90506104c28185610ffd90919063ffffffff16565b156104d15783925050506104d7565b80925050505b919050565b6000806000905060005b60328110156109ea57600060038281548110610505576105046121a1565b5b9060005260206000200180548060200260200160405190810160405280929190818152602001828054801561055957602002820191906000526020600020905b815481526020019060010190808311610545575b50505050509050600081600081518110610576576105756121a1565b5b602002602001015190506000808054905067ffffffffffffffff8111156105a05761059f612273565b5b6040519080825280602002602001820160405280156105ce5781602001602082028036833780820191505090505b50905060005b6000805490508110156107735760026000815481106105f6576105f56121a1565b5b906000526020600020018181548110610612576106116121a1565b5b90600052602060002001548282815181106106305761062f6121a1565b5b6020026020010181815250506000600190505b845181101561071d576106eb6106c260008481548110610666576106656121a1565b5b9060005260206000200160018461067d9190612319565b8154811061068e5761068d6121a1565b5b90600052602060002001548784815181106106ac576106ab6121a1565b5b602002602001015161101b90919063ffffffff16565b8484815181106106d5576106d46121a1565b5b6020026020010151610e3690919063ffffffff16565b8383815181106106fe576106fd6121a1565b5b6020026020010181815250508080610715906122d1565b915050610643565b50610741828281518110610734576107336121a1565b5b602002602001015161049b565b828281518110610754576107536121a1565b5b602002602001018181525050808061076b906122d1565b9150506105d4565b50600060018054905067ffffffffffffffff81111561079557610794612273565b5b6040519080825280602002602001820160405280156107c35781602001602082028036833780820191505090505b50905060005b60018054905081101561095c5760026001815481106107eb576107ea6121a1565b5b906000526020600020018181548110610807576108066121a1565b5b9060005260206000200154828281518110610825576108246121a1565b5b60200260200101818152505060005b600080549050811015610906576108d46108ab6001848154811061085b5761085a6121a1565b5b906000526020600020018381548110610877576108766121a1565b5b9060005260206000200154868481518110610895576108946121a1565b5b602002602001015161101b90919063ffffffff16565b8484815181106108be576108bd6121a1565b5b6020026020010151610e3690919063ffffffff16565b8383815181106108e7576108e66121a1565b5b60200260200101818152505080806108fe906122d1565b915050610834565b5061092a82828151811061091d5761091c6121a1565b5b6020026020010151610287565b82828151811061093d5761093c6121a1565b5b6020026020010181815250508080610954906122d1565b9150506107c9565b506000806109716706f05b59d3b200006111ab565b90506109a1818460008151811061098b5761098a6121a1565b5b6020026020010151610ffd90919063ffffffff16565b156109b657670de0b6b3a764000091506109bb565b600091505b8185036109d15787806109cd9061234d565b9850505b50505050505080806109e2906122d1565b9150506104e6565b508091505090565b60028310610a35576040517f08c379a0000000000000000000000000000000000000000000000000000000008152600401610a2c906123e1565b60405180910390fd5b60008282905067ffffffffffffffff811115610a5457610a53612273565b5b604051908082528060200260200182016040528015610a825781602001602082028036833780820191505090505b50905060005b83839050811015610adf57838382818110610aa657610aa56121a1565b5b90506020020135828281518110610ac057610abf6121a1565b5b6020026020010181815250508080610ad7906122d1565b915050610a88565b5060008403610b2957600081908060018154018082558091505060019003906000526020600020016000909190919091509080519060200190610b23929190611e98565b50610b6f565b60018403610b6e57600181908060018154018082558091505060019003906000526020600020016000909190919091509080519060200190610b6c929190611e98565b505b5b50505050565b6000600380549050905090565b60008281548110610b9257600080fd5b906000526020600020018181548110610baa57600080fd5b90600052602060002001600091509150505481565b60045481565b60028281548110610bd557600080fd5b906000526020600020018181548110610bed57600080fd5b90600052602060002001600091509150505481565b60038281548110610c1257600080fd5b906000526020600020018181548110610c2a57600080fd5b90600052602060002001600091509150505481565b6000670de0b6b3a76400007f8000000000000000000000000000000000000000000000000000000000000000610c759190612430565b821215610cb957816040517f99474eeb000000000000000000000000000000000000000000000000000000008152600401610cb0919061215c565b60405180910390fd5b670de0b6b3a76400007f7fffffffffffffffffffffffffffffffffffffffffffffffffffffffffffffff610ced9190612430565b821315610d3157816040517f9d581091000000000000000000000000000000000000000000000000000000008152600401610d28919061215c565b60405180910390fd5b670de0b6b3a764000082029050919050565b6000610d5f610d51836111b5565b610d5a9061249a565b6111bf565b9050919050565b600080610d72836111b5565b90507ffffffffffffffffffffffffffffffffffffffffffffffffdc0d0570925a462ce811215610da6576000915050610e31565b680736ea4425c11ac630811315610df457826040517fca7ec0c5000000000000000000000000000000000000000000000000000000008152600401610deb9190611faa565b60405180910390fd5b60006714057b7ef767814f82029050610e2c610e27670de0b6b3a76400008381610e2157610e20612401565b5b056111bf565b6111c9565b925050505b919050565b6000610e5c610e44836111b5565b610e4d856111b5565b610e5791906124e2565b6111bf565b905092915050565b600080610e70846111b5565b90506000610e7d846111b5565b90507f8000000000000000000000000000000000000000000000000000000000000000821480610ecc57507f800000000000000000000000000000000000000000000000000000000000000081145b15610f03576040517f9fe2b45000000000000000000000000000000000000000000000000000000000815260040160405180910390fd5b60008060008412610f145783610f19565b836000035b915060008312610f295782610f2e565b826000035b90506000610f4583670de0b6b3a7640000846112e7565b90507f7fffffffffffffffffffffffffffffffffffffffffffffffffffffffffffffff811115610fae5787876040517fd49c26b3000000000000000000000000000000000000000000000000000000008152600401610fa5929190612526565b60405180910390fd5b60007fffffffffffffffffffffffffffffffffffffffffffffffffffffffffffffffff858718139050610fef81610fe85782600003610fea565b825b6111bf565b965050505050505092915050565b6000611008826111b5565b611011846111b5565b1215905092915050565b600080611027846111b5565b90506000611034846111b5565b90507f800000000000000000000000000000000000000000000000000000000000000082148061108357507f800000000000000000000000000000000000000000000000000000000000000081145b156110ba576040517fa6070c2500000000000000000000000000000000000000000000000000000000815260040160405180910390fd5b600080600084126110cb57836110d0565b836000035b9150600083126110e057826110e5565b826000035b905060006110f38383611401565b90507f7fffffffffffffffffffffffffffffffffffffffffffffffffffffffffffffff81111561115c5787876040517f120b5b43000000000000000000000000000000000000000000000000000000008152600401611153929190612526565b60405180910390fd5b60007fffffffffffffffffffffffffffffffffffffffffffffffffffffffffffffffff85871813905061119d816111965782600003611198565b825b6111bf565b965050505050505092915050565b6000819050919050565b6000819050919050565b6000819050919050565b6000806111d5836111b5565b9050600081121561125c577ffffffffffffffffffffffffffffffffffffffffffffffffcc22e87f6eb468eeb8112156112125760009150506112e2565b61125561123161122c611227846000036111bf565b6111c9565b6111b5565b6ec097ce7bc90715b34b9f10000000008161124f5761124e612401565b5b056111bf565b91506112e0565b680a688906bd8affffff8113156112aa57826040517f0360d0280000000000000000000000000000000000000000000000000000000081526004016112a19190611faa565b60405180910390fd5b6000670de0b6b3a7640000604083901b816112c8576112c7612401565b5b0590506112dc6112d7826114eb565b6111bf565b9250505b505b919050565b60008060008019858709858702925082811083820303915050600081036113225783828161131857611317612401565b5b04925050506113fa565b83811061136a578585856040517f63a057780000000000000000000000000000000000000000000000000000000081526004016113619392919061254f565b60405180910390fd5b60008486880990508281118203915080830392506000600186190186169050600081870496508185049450600182836000030401905080840285179450600060028860030218905080880260020381029050808802600203810290508088026002038102905080880260020381029050808802600203810290508088026002038102905080860296505050505050505b9392505050565b600080600080198486098486029250828110838203039150506000810361144457670de0b6b3a7640000828161143a57611439612401565b5b04925050506114e5565b670de0b6b3a764000081106114925784846040517f5173648d000000000000000000000000000000000000000000000000000000008152600401611489929190612586565b60405180910390fd5b6000670de0b6b3a764000085870990507faccb18165bd6fe31ae1cf318dc5b51eee0e1ba569b88cd74c1773b91fac106696001620400008060000304018483118403026204000083860304170293505050505b92915050565b6000778000000000000000000000000000000000000000000000009050600067ff000000000000008316111561164c5760006780000000000000008316111561154157604068016a09e667f3bcc9098202901c90505b6000674000000000000000831611156115675760406801306fe0a31b7152df8202901c90505b60006720000000000000008316111561158d5760406801172b83c7d517adce8202901c90505b6000671000000000000000831611156115b357604068010b5586cf9890f62a8202901c90505b6000670800000000000000831611156115d95760406801059b0d31585743ae8202901c90505b6000670400000000000000831611156115ff576040680102c9a3e778060ee78202901c90505b60006702000000000000008316111561162557604068010163da9fb33356d88202901c90505b60006701000000000000008316111561164b576040680100b1afa5abcbed618202901c90505b5b600066ff0000000000008316111561178757600066800000000000008316111561168357604068010058c86da1c09ea28202901c90505b60006640000000000000831611156116a85760406801002c605e2e8cec508202901c90505b60006620000000000000831611156116cd576040680100162f3904051fa18202901c90505b60006610000000000000831611156116f25760406801000b175effdc76ba8202901c90505b6000660800000000000083161115611717576040680100058ba01fb9f96d8202901c90505b600066040000000000008316111561173c57604068010002c5cc37da94928202901c90505b60006602000000000000831611156117615760406801000162e525ee05478202901c90505b600066010000000000008316111561178657604068010000b17255775c048202901c90505b5b600065ff0000000000831611156118b957600065800000000000831611156117bc5760406801000058b91b5bc9ae8202901c90505b600065400000000000831611156117e0576040680100002c5c89d5ec6d8202901c90505b6000652000000000008316111561180457604068010000162e43f4f8318202901c90505b60006510000000000083161115611828576040680100000b1721bcfc9a8202901c90505b6000650800000000008316111561184c57604068010000058b90cf1e6e8202901c90505b600065040000000000831611156118705760406801000002c5c863b73f8202901c90505b60006502000000000083161115611894576040680100000162e430e5a28202901c90505b600065010000000000831611156118b85760406801000000b1721835518202901c90505b5b600064ff00000000831611156119e2576000648000000000831611156118ec576040680100000058b90c0b498202901c90505b60006440000000008316111561190f57604068010000002c5c8601cc8202901c90505b6000642000000000831611156119325760406801000000162e42fff08202901c90505b60006410000000008316111561195557604068010000000b17217fbb8202901c90505b6000640800000000831611156119785760406801000000058b90bfce8202901c90505b60006404000000008316111561199b576040680100000002c5c85fe38202901c90505b6000640200000000831611156119be57604068010000000162e42ff18202901c90505b6000640100000000831611156119e1576040680100000000b17217f88202901c90505b5b600063ff00000083161115611b02576000638000000083161115611a1357604068010000000058b90bfc8202901c90505b6000634000000083161115611a355760406801000000002c5c85fe8202901c90505b6000632000000083161115611a57576040680100000000162e42ff8202901c90505b6000631000000083161115611a795760406801000000000b17217f8202901c90505b6000630800000083161115611a9b576040680100000000058b90c08202901c90505b6000630400000083161115611abd57604068010000000002c5c8608202901c90505b6000630200000083161115611adf5760406801000000000162e4308202901c90505b6000630100000083161115611b0157604068010000000000b172188202901c90505b5b600062ff000083161115611c195760006280000083161115611b315760406801000000000058b90c8202901c90505b60006240000083161115611b52576040680100000000002c5c868202901c90505b60006220000083161115611b7357604068010000000000162e438202901c90505b60006210000083161115611b94576040680100000000000b17218202901c90505b60006208000083161115611bb557604068010000000000058b918202901c90505b60006204000083161115611bd65760406801000000000002c5c88202901c90505b60006202000083161115611bf7576040680100000000000162e48202901c90505b60006201000083161115611c185760406801000000000000b1728202901c90505b5b600061ff0083161115611d2757600061800083161115611c46576040680100000000000058b98202901c90505b600061400083161115611c6657604068010000000000002c5d8202901c90505b600061200083161115611c865760406801000000000000162e8202901c90505b600061100083161115611ca657604068010000000000000b178202901c90505b600061080083161115611cc65760406801000000000000058c8202901c90505b600061040083161115611ce6576040680100000000000002c68202901c90505b600061020083161115611d06576040680100000000000001638202901c90505b600061010083161115611d26576040680100000000000000b18202901c90505b5b600060ff83161115611e2c576000608083161115611d52576040680100000000000000598202901c90505b6000604083161115611d715760406801000000000000002c8202901c90505b6000602083161115611d90576040680100000000000000168202901c90505b6000601083161115611daf5760406801000000000000000b8202901c90505b6000600883161115611dce576040680100000000000000068202901c90505b6000600483161115611ded576040680100000000000000038202901c90505b6000600283161115611e0c576040680100000000000000018202901c90505b6000600183161115611e2b576040680100000000000000018202901c90505b5b670de0b6b3a764000081029050604082901c60bf0381901c9050919050565b828054828255906000526020600020908101928215611e87579160200282015b82811115611e86578235825591602001919060010190611e6b565b5b509050611e949190611ee5565b5090565b828054828255906000526020600020908101928215611ed4579160200282015b82811115611ed3578251825591602001919060010190611eb8565b5b509050611ee19190611ee5565b5090565b5b80821115611efe576000816000905550600101611ee6565b5090565b600080fd5b600080fd5b6000819050919050565b611f1f81611f0c565b8114611f2a57600080fd5b50565b600081359050611f3c81611f16565b92915050565b600060208284031215611f5857611f57611f02565b5b6000611f6684828501611f2d565b91505092915050565b6000819050919050565b6000611f94611f8f611f8a84611f0c565b611f6f565b611f0c565b9050919050565b611fa481611f79565b82525050565b6000602082019050611fbf6000830184611f9b565b92915050565b6000819050919050565b611fd881611fc5565b8114611fe357600080fd5b50565b600081359050611ff581611fcf565b92915050565b600080fd5b600080fd5b600080fd5b60008083601f8401126120205761201f611ffb565b5b8235905067ffffffffffffffff81111561203d5761203c612000565b5b60208301915083602082028301111561205957612058612005565b5b9250929050565b60008060006040848603121561207957612078611f02565b5b600061208786828701611fe6565b935050602084013567ffffffffffffffff8111156120a8576120a7611f07565b5b6120b48682870161200a565b92509250509250925092565b600080602083850312156120d7576120d6611f02565b5b600083013567ffffffffffffffff8111156120f5576120f4611f07565b5b6121018582860161200a565b92509250509250929050565b6000806040838503121561212457612123611f02565b5b600061213285828601611fe6565b925050602061214385828601611fe6565b9150509250929050565b61215681611f0c565b82525050565b6000602082019050612171600083018461214d565b92915050565b61218081611fc5565b82525050565b600060208201905061219b6000830184612177565b92915050565b7f4e487b7100000000000000000000000000000000000000000000000000000000600052603260045260246000fd5b600082825260208201905092915050565b7f53697a65206f6620696e7075742062696173657320646f6573206e6f74206d6160008201527f746368206e6575726f6e206e756d626572000000000000000000000000000000602082015250565b600061223d6031836121d0565b9150612248826121e1565b604082019050919050565b6000602082019050818103600083015261226c81612230565b9050919050565b7f4e487b7100000000000000000000000000000000000000000000000000000000600052604160045260246000fd5b7f4e487b7100000000000000000000000000000000000000000000000000000000600052601160045260246000fd5b60006122dc82611fc5565b91507fffffffffffffffffffffffffffffffffffffffffffffffffffffffffffffffff820361230e5761230d6122a2565b5b600182019050919050565b600061232482611fc5565b915061232f83611fc5565b9250828203905081811115612347576123466122a2565b5b92915050565b600061235882611f0c565b91507f7fffffffffffffffffffffffffffffffffffffffffffffffffffffffffffffff820361238a576123896122a2565b5b600182019050919050565b7f4c6179657220696e646578206f7574206f6620626f756e647300000000000000600082015250565b60006123cb6019836121d0565b91506123d682612395565b602082019050919050565b600060208201905081810360008301526123fa816123be565b9050919050565b7f4e487b7100000000000000000000000000000000000000000000000000000000600052601260045260246000fd5b600061243b82611f0c565b915061244683611f0c565b92508261245657612455612401565b5b600160000383147f80000000000000000000000000000000000000000000000000000000000000008314161561248f5761248e6122a2565b5b828205905092915050565b60006124a582611f0c565b91507f800000000000000000000000000000000000000000000000000000000000000082036124d7576124d66122a2565b5b816000039050919050565b60006124ed82611f0c565b91506124f883611f0c565b9250828201905082811215600083121683821260008412151617156125205761251f6122a2565b5b92915050565b600060408201905061253b6000830185611f9b565b6125486020830184611f9b565b9392505050565b60006060820190506125646000830186612177565b6125716020830185612177565b61257e6040830184612177565b949350505050565b600060408201905061259b6000830185612177565b6125a86020830184612177565b939250505056fea2646970667358221220a97dee9c9261f54e9c6a11964e96ea3a74de914c0c6d22ae9288af55bf292e0164736f6c63430008140033",
  "linkReferences": {},
  "deployedLinkReferences": {}
}