{
  "_format": "hh-sol-artifact-1",
  "contractName": "functions",
  "sourceName": "contracts/functions.sol",
  "abi": [
    {
      "inputs": [
        {
          "internalType": "uint256",
          "name": "x",
          "type": "uint256"
        },
        {
          "internalType": "uint256",
          "name": "y",
          "type": "uint256"
        }
      ],
      "name": "PRBMath_MulDiv18_Overflow",
      "type": "error"
    },
    {
      "inputs": [
        {
          "internalType": "uint256",
          "name": "x",
          "type": "uint256"
        },
        {
          "internalType": "uint256",
          "name": "y",
          "type": "uint256"
        },
        {
          "internalType": "uint256",
          "name": "denominator",
          "type": "uint256"
        }
      ],
      "name": "PRBMath_MulDiv_Overflow",
      "type": "error"
    },
    {
      "inputs": [
        {
          "internalType": "int256",
          "name": "x",
          "type": "int256"
        }
      ],
      "name": "PRBMath_SD59x18_Convert_Overflow",
      "type": "error"
    },
    {
      "inputs": [
        {
          "internalType": "int256",
          "name": "x",
          "type": "int256"
        }
      ],
      "name": "PRBMath_SD59x18_Convert_Underflow",
      "type": "error"
    },
    {
      "inputs": [],
      "name": "PRBMath_SD59x18_Div_InputTooSmall",
      "type": "error"
    },
    {
      "inputs": [
        {
          "internalType": "SD59x18",
          "name": "x",
          "type": "int256"
        },
        {
          "internalType": "SD59x18",
          "name": "y",
          "type": "int256"
        }
      ],
      "name": "PRBMath_SD59x18_Div_Overflow",
      "type": "error"
    },
    {
      "inputs": [
        {
          "internalType": "SD59x18",
          "name": "x",
          "type": "int256"
        }
      ],
      "name": "PRBMath_SD59x18_Exp2_InputTooBig",
      "type": "error"
    },
    {
      "inputs": [
        {
          "internalType": "SD59x18",
          "name": "x",
          "type": "int256"
        }
      ],
      "name": "PRBMath_SD59x18_Exp_InputTooBig",
      "type": "error"
    },
    {
      "inputs": [],
      "name": "PRBMath_SD59x18_Mul_InputTooSmall",
      "type": "error"
    },
    {
      "inputs": [
        {
          "internalType": "SD59x18",
          "name": "x",
          "type": "int256"
        },
        {
          "internalType": "SD59x18",
          "name": "y",
          "type": "int256"
        }
      ],
      "name": "PRBMath_SD59x18_Mul_Overflow",
      "type": "error"
    },
    {
      "inputs": [
        {
          "internalType": "int256",
          "name": "x",
          "type": "int256"
        },
        {
          "internalType": "int256",
          "name": "y",
          "type": "int256"
        }
      ],
      "name": "add_1",
      "outputs": [],
      "stateMutability": "view",
      "type": "function"
    },
    {
      "inputs": [
        {
          "internalType": "int256",
          "name": "x",
          "type": "int256"
        },
        {
          "internalType": "int256",
          "name": "y",
          "type": "int256"
        }
      ],
      "name": "add_2",
      "outputs": [],
      "stateMutability": "pure",
      "type": "function"
    },
    {
      "inputs": [
        {
          "internalType": "SD59x18",
          "name": "x",
          "type": "int256"
        },
        {
          "internalType": "SD59x18",
          "name": "y",
          "type": "int256"
        }
      ],
      "name": "add_prb_1",
      "outputs": [],
      "stateMutability": "view",
      "type": "function"
    },
    {
      "inputs": [
        {
          "internalType": "SD59x18",
          "name": "x",
          "type": "int256"
        },
        {
          "internalType": "SD59x18",
          "name": "y",
          "type": "int256"
        }
      ],
      "name": "add_prb_2",
      "outputs": [],
      "stateMutability": "pure",
      "type": "function"
    },
    {
      "inputs": [
        {
          "internalType": "int256",
          "name": "x",
          "type": "int256"
        },
        {
          "internalType": "int256",
          "name": "y",
          "type": "int256"
        }
      ],
      "name": "div_1",
      "outputs": [],
      "stateMutability": "view",
      "type": "function"
    },
    {
      "inputs": [
        {
          "internalType": "int256",
          "name": "x",
          "type": "int256"
        },
        {
          "internalType": "int256",
          "name": "y",
          "type": "int256"
        }
      ],
      "name": "div_2",
      "outputs": [],
      "stateMutability": "pure",
      "type": "function"
    },
    {
      "inputs": [
        {
          "internalType": "SD59x18",
          "name": "x",
          "type": "int256"
        },
        {
          "internalType": "SD59x18",
          "name": "y",
          "type": "int256"
        }
      ],
      "name": "div_prb_1",
      "outputs": [],
      "stateMutability": "view",
      "type": "function"
    },
    {
      "inputs": [
        {
          "internalType": "SD59x18",
          "name": "x",
          "type": "int256"
        },
        {
          "internalType": "SD59x18",
          "name": "y",
          "type": "int256"
        }
      ],
      "name": "div_prb_2",
      "outputs": [],
      "stateMutability": "pure",
      "type": "function"
    },
    {
      "inputs": [
        {
          "internalType": "int256",
          "name": "x",
          "type": "int256"
        },
        {
          "internalType": "int256",
          "name": "y",
          "type": "int256"
        }
      ],
      "name": "mul_1",
      "outputs": [],
      "stateMutability": "view",
      "type": "function"
    },
    {
      "inputs": [
        {
          "internalType": "int256",
          "name": "x",
          "type": "int256"
        },
        {
          "internalType": "int256",
          "name": "y",
          "type": "int256"
        }
      ],
      "name": "mul_2",
      "outputs": [],
      "stateMutability": "pure",
      "type": "function"
    },
    {
      "inputs": [
        {
          "internalType": "SD59x18",
          "name": "x",
          "type": "int256"
        },
        {
          "internalType": "SD59x18",
          "name": "y",
          "type": "int256"
        }
      ],
      "name": "mul_prb_1",
      "outputs": [],
      "stateMutability": "view",
      "type": "function"
    },
    {
      "inputs": [
        {
          "internalType": "SD59x18",
          "name": "x",
          "type": "int256"
        },
        {
          "internalType": "SD59x18",
          "name": "y",
          "type": "int256"
        }
      ],
      "name": "mul_prb_2",
      "outputs": [],
      "stateMutability": "pure",
      "type": "function"
    },
    {
      "inputs": [
        {
          "internalType": "SD59x18",
          "name": "x",
          "type": "int256"
        }
      ],
      "name": "relu",
      "outputs": [
        {
          "internalType": "SD59x18",
          "name": "",
          "type": "int256"
        }
      ],
      "stateMutability": "pure",
      "type": "function"
    },
    {
      "inputs": [
        {
          "internalType": "SD59x18",
          "name": "x",
          "type": "int256"
        }
      ],
      "name": "sigmoid",
      "outputs": [
        {
          "internalType": "SD59x18",
          "name": "",
          "type": "int256"
        }
      ],
      "stateMutability": "pure",
      "type": "function"
    }
  ],
  "bytecode": "0x608060405234801561001057600080fd5b506119ff806100206000396000f3fe608060405234801561001057600080fd5b50600436106100ea5760003560e01c8063b19cdbce1161008c578063c4a986fd11610066578063c4a986fd1461022f578063da36f37a1461024b578063e7ec906414610267578063f84bef9914610283576100ea565b8063b19cdbce146101db578063b3c9d9e0146101f7578063b87f1e0c14610213576100ea565b806367fe9add116100c857806367fe9add1461014357806394d5e4c2146101735780639713342d146101a3578063a3d08650146101bf576100ea565b80631d1a27d1146100ef5780632a15c7c41461010b5780634daa569c14610127575b600080fd5b61010960048036038101906101049190611602565b61029f565b005b61012560048036038101906101209190611602565b6102b0565b005b610141600480360381019061013c919061166e565b6102c1565b005b61015d600480360381019061015891906116ae565b6102c5565b60405161016a9190611716565b60405180910390f35b61018d600480360381019061018891906116ae565b610317565b60405161019a9190611716565b60405180910390f35b6101bd60048036038101906101b8919061166e565b610358565b005b6101d960048036038101906101d4919061166e565b610370565b005b6101f560048036038101906101f0919061166e565b610374565b005b610211600480360381019061020c919061166e565b61038c565b005b61022d6004803603810190610228919061166e565b610390565b005b61024960048036038101906102449190611602565b6103a8565b005b61026560048036038101906102609190611602565b6103ac565b005b610281600480360381019061027c9190611602565b6103b0565b005b61029d60048036038101906102989190611602565b6103b4565b005b80826102ab9190611760565b505050565b80826102bc91906117d8565b505050565b5050565b6000806001905060006102d7826103c5565b905061030e6102ff6102f06102eb876104c9565b6104ec565b836105bc90919063ffffffff16565b826105ea90919063ffffffff16565b92505050919050565b600080600090506000610329826103c5565b905061033e818561078390919063ffffffff16565b1561034d578392505050610353565b80925050505b919050565b61036b81836105ea90919063ffffffff16565b505050565b5050565b61038781836105bc90919063ffffffff16565b505050565b5050565b6103a381836107a190919063ffffffff16565b505050565b5050565b5050565b5050565b80826103c0919061184b565b505050565b6000670de0b6b3a76400007f80000000000000000000000000000000000000000000000000000000000000006103fb919061184b565b82121561043f57816040517f99474eeb00000000000000000000000000000000000000000000000000000000815260040161043691906118c4565b60405180910390fd5b670de0b6b3a76400007f7fffffffffffffffffffffffffffffffffffffffffffffffffffffffffffffff610473919061184b565b8213156104b757816040517f9d5810910000000000000000000000000000000000000000000000000000000081526004016104ae91906118c4565b60405180910390fd5b670de0b6b3a764000082029050919050565b60006104e56104d783610931565b6104e0906118df565b61093b565b9050919050565b6000806104f883610931565b90507ffffffffffffffffffffffffffffffffffffffffffffffffdc0d0570925a462ce81121561052c5760009150506105b7565b680736ea4425c11ac63081131561057a57826040517fca7ec0c50000000000000000000000000000000000000000000000000000000081526004016105719190611716565b60405180910390fd5b60006714057b7ef767814f820290506105b26105ad670de0b6b3a764000083816105a7576105a661181c565b5b0561093b565b610945565b925050505b919050565b60006105e26105ca83610931565b6105d385610931565b6105dd91906117d8565b61093b565b905092915050565b6000806105f684610931565b9050600061060384610931565b90507f800000000000000000000000000000000000000000000000000000000000000082148061065257507f800000000000000000000000000000000000000000000000000000000000000081145b15610689576040517f9fe2b45000000000000000000000000000000000000000000000000000000000815260040160405180910390fd5b6000806000841261069a578361069f565b836000035b9150600083126106af57826106b4565b826000035b905060006106cb83670de0b6b3a764000084610a63565b90507f7fffffffffffffffffffffffffffffffffffffffffffffffffffffffffffffff8111156107345787876040517fd49c26b300000000000000000000000000000000000000000000000000000000815260040161072b929190611927565b60405180910390fd5b60007fffffffffffffffffffffffffffffffffffffffffffffffffffffffffffffffff8587181390506107758161076e5782600003610770565b825b61093b565b965050505050505092915050565b600061078e82610931565b61079784610931565b1215905092915050565b6000806107ad84610931565b905060006107ba84610931565b90507f800000000000000000000000000000000000000000000000000000000000000082148061080957507f800000000000000000000000000000000000000000000000000000000000000081145b15610840576040517fa6070c2500000000000000000000000000000000000000000000000000000000815260040160405180910390fd5b600080600084126108515783610856565b836000035b915060008312610866578261086b565b826000035b905060006108798383610b7d565b90507f7fffffffffffffffffffffffffffffffffffffffffffffffffffffffffffffff8111156108e25787876040517f120b5b430000000000000000000000000000000000000000000000000000000081526004016108d9929190611927565b60405180910390fd5b60007fffffffffffffffffffffffffffffffffffffffffffffffffffffffffffffffff8587181390506109238161091c578260000361091e565b825b61093b565b965050505050505092915050565b6000819050919050565b6000819050919050565b60008061095183610931565b905060008112156109d8577ffffffffffffffffffffffffffffffffffffffffffffffffcc22e87f6eb468eeb81121561098e576000915050610a5e565b6109d16109ad6109a86109a38460000361093b565b610945565b610931565b6ec097ce7bc90715b34b9f1000000000816109cb576109ca61181c565b5b0561093b565b9150610a5c565b680a688906bd8affffff811315610a2657826040517f0360d028000000000000000000000000000000000000000000000000000000008152600401610a1d9190611716565b60405180910390fd5b6000670de0b6b3a7640000604083901b81610a4457610a4361181c565b5b059050610a58610a5382610c67565b61093b565b9250505b505b919050565b6000806000801985870985870292508281108382030391505060008103610a9e57838281610a9457610a9361181c565b5b0492505050610b76565b838110610ae6578585856040517f63a05778000000000000000000000000000000000000000000000000000000008152600401610add93929190611969565b60405180910390fd5b60008486880990508281118203915080830392506000600186190186169050600081870496508185049450600182836000030401905080840285179450600060028860030218905080880260020381029050808802600203810290508088026002038102905080880260020381029050808802600203810290508088026002038102905080860296505050505050505b9392505050565b6000806000801984860984860292508281108382030391505060008103610bc057670de0b6b3a76400008281610bb657610bb561181c565b5b0492505050610c61565b670de0b6b3a76400008110610c0e5784846040517f5173648d000000000000000000000000000000000000000000000000000000008152600401610c059291906119a0565b60405180910390fd5b6000670de0b6b3a764000085870990507faccb18165bd6fe31ae1cf318dc5b51eee0e1ba569b88cd74c1773b91fac106696001620400008060000304018483118403026204000083860304170293505050505b92915050565b6000778000000000000000000000000000000000000000000000009050600067ff0000000000000083161115610dc857600067800000000000000083161115610cbd57604068016a09e667f3bcc9098202901c90505b600067400000000000000083161115610ce35760406801306fe0a31b7152df8202901c90505b600067200000000000000083161115610d095760406801172b83c7d517adce8202901c90505b600067100000000000000083161115610d2f57604068010b5586cf9890f62a8202901c90505b600067080000000000000083161115610d555760406801059b0d31585743ae8202901c90505b600067040000000000000083161115610d7b576040680102c9a3e778060ee78202901c90505b600067020000000000000083161115610da157604068010163da9fb33356d88202901c90505b600067010000000000000083161115610dc7576040680100b1afa5abcbed618202901c90505b5b600066ff00000000000083161115610f03576000668000000000000083161115610dff57604068010058c86da1c09ea28202901c90505b6000664000000000000083161115610e245760406801002c605e2e8cec508202901c90505b6000662000000000000083161115610e49576040680100162f3904051fa18202901c90505b6000661000000000000083161115610e6e5760406801000b175effdc76ba8202901c90505b6000660800000000000083161115610e93576040680100058ba01fb9f96d8202901c90505b6000660400000000000083161115610eb857604068010002c5cc37da94928202901c90505b6000660200000000000083161115610edd5760406801000162e525ee05478202901c90505b6000660100000000000083161115610f0257604068010000b17255775c048202901c90505b5b600065ff0000000000831611156110355760006580000000000083161115610f385760406801000058b91b5bc9ae8202901c90505b60006540000000000083161115610f5c576040680100002c5c89d5ec6d8202901c90505b60006520000000000083161115610f8057604068010000162e43f4f8318202901c90505b60006510000000000083161115610fa4576040680100000b1721bcfc9a8202901c90505b60006508000000000083161115610fc857604068010000058b90cf1e6e8202901c90505b60006504000000000083161115610fec5760406801000002c5c863b73f8202901c90505b60006502000000000083161115611010576040680100000162e430e5a28202901c90505b600065010000000000831611156110345760406801000000b1721835518202901c90505b5b600064ff000000008316111561115e57600064800000000083161115611068576040680100000058b90c0b498202901c90505b60006440000000008316111561108b57604068010000002c5c8601cc8202901c90505b6000642000000000831611156110ae5760406801000000162e42fff08202901c90505b6000641000000000831611156110d157604068010000000b17217fbb8202901c90505b6000640800000000831611156110f45760406801000000058b90bfce8202901c90505b600064040000000083161115611117576040680100000002c5c85fe38202901c90505b60006402000000008316111561113a57604068010000000162e42ff18202901c90505b60006401000000008316111561115d576040680100000000b17217f88202901c90505b5b600063ff0000008316111561127e57600063800000008316111561118f57604068010000000058b90bfc8202901c90505b60006340000000831611156111b15760406801000000002c5c85fe8202901c90505b60006320000000831611156111d3576040680100000000162e42ff8202901c90505b60006310000000831611156111f55760406801000000000b17217f8202901c90505b6000630800000083161115611217576040680100000000058b90c08202901c90505b600063040000008316111561123957604068010000000002c5c8608202901c90505b600063020000008316111561125b5760406801000000000162e4308202901c90505b600063010000008316111561127d57604068010000000000b172188202901c90505b5b600062ff00008316111561139557600062800000831611156112ad5760406801000000000058b90c8202901c90505b600062400000831611156112ce576040680100000000002c5c868202901c90505b600062200000831611156112ef57604068010000000000162e438202901c90505b60006210000083161115611310576040680100000000000b17218202901c90505b6000620800008316111561133157604068010000000000058b918202901c90505b600062040000831611156113525760406801000000000002c5c88202901c90505b60006202000083161115611373576040680100000000000162e48202901c90505b600062010000831611156113945760406801000000000000b1728202901c90505b5b600061ff00831611156114a3576000618000831611156113c2576040680100000000000058b98202901c90505b6000614000831611156113e257604068010000000000002c5d8202901c90505b6000612000831611156114025760406801000000000000162e8202901c90505b60006110008316111561142257604068010000000000000b178202901c90505b6000610800831611156114425760406801000000000000058c8202901c90505b600061040083161115611462576040680100000000000002c68202901c90505b600061020083161115611482576040680100000000000001638202901c90505b6000610100831611156114a2576040680100000000000000b18202901c90505b5b600060ff831611156115a85760006080831611156114ce576040680100000000000000598202901c90505b60006040831611156114ed5760406801000000000000002c8202901c90505b600060208316111561150c576040680100000000000000168202901c90505b600060108316111561152b5760406801000000000000000b8202901c90505b600060088316111561154a576040680100000000000000068202901c90505b6000600483161115611569576040680100000000000000038202901c90505b6000600283161115611588576040680100000000000000018202901c90505b60006001831611156115a7576040680100000000000000018202901c90505b5b670de0b6b3a764000081029050604082901c60bf0381901c9050919050565b600080fd5b6000819050919050565b6115df816115cc565b81146115ea57600080fd5b50565b6000813590506115fc816115d6565b92915050565b60008060408385031215611619576116186115c7565b5b6000611627858286016115ed565b9250506020611638858286016115ed565b9150509250929050565b61164b816115cc565b811461165657600080fd5b50565b60008135905061166881611642565b92915050565b60008060408385031215611685576116846115c7565b5b600061169385828601611659565b92505060206116a485828601611659565b9150509250929050565b6000602082840312156116c4576116c36115c7565b5b60006116d284828501611659565b91505092915050565b6000819050919050565b60006117006116fb6116f6846115cc565b6116db565b6115cc565b9050919050565b611710816116e5565b82525050565b600060208201905061172b6000830184611707565b92915050565b7f4e487b7100000000000000000000000000000000000000000000000000000000600052601160045260246000fd5b600061176b826115cc565b9150611776836115cc565b9250828202611784816115cc565b91507f800000000000000000000000000000000000000000000000000000000000000084146000841216156117bc576117bb611731565b5b82820584148315176117d1576117d0611731565b5b5092915050565b60006117e3826115cc565b91506117ee836115cc565b92508282019050828112156000831216838212600084121516171561181657611815611731565b5b92915050565b7f4e487b7100000000000000000000000000000000000000000000000000000000600052601260045260246000fd5b6000611856826115cc565b9150611861836115cc565b9250826118715761187061181c565b5b600160000383147f8000000000000000000000000000000000000000000000000000000000000000831416156118aa576118a9611731565b5b828205905092915050565b6118be816115cc565b82525050565b60006020820190506118d960008301846118b5565b92915050565b60006118ea826115cc565b91507f8000000000000000000000000000000000000000000000000000000000000000820361191c5761191b611731565b5b816000039050919050565b600060408201905061193c6000830185611707565b6119496020830184611707565b9392505050565b6000819050919050565b61196381611950565b82525050565b600060608201905061197e600083018661195a565b61198b602083018561195a565b611998604083018461195a565b949350505050565b60006040820190506119b5600083018561195a565b6119c2602083018461195a565b939250505056fea2646970667358221220a83eab4e2b7ff49fccd135ce65d125a5ecd04250ec99dead072888c70d37b93064736f6c63430008140033",
  "linkReferences": {},
  "deployedLinkReferences": {}
}