{
  "_format": "hh-sol-artifact-1",
  "contractName": "MLP_1L_1n",
  "sourceName": "contracts/MLP_1L_1n.sol",
  "abi": [
    {
      "inputs": [
        {
          "internalType": "uint256",
          "name": "layer_num",
          "type": "uint256"
        }
      ],
      "stateMutability": "nonpayable",
      "type": "constructor"
    },
    {
      "inputs": [
        {
          "internalType": "uint256",
          "name": "x",
          "type": "uint256"
        },
        {
          "internalType": "uint256",
          "name": "y",
          "type": "uint256"
        }
      ],
      "name": "PRBMath_MulDiv18_Overflow",
      "type": "error"
    },
    {
      "inputs": [
        {
          "internalType": "uint256",
          "name": "x",
          "type": "uint256"
        },
        {
          "internalType": "uint256",
          "name": "y",
          "type": "uint256"
        },
        {
          "internalType": "uint256",
          "name": "denominator",
          "type": "uint256"
        }
      ],
      "name": "PRBMath_MulDiv_Overflow",
      "type": "error"
    },
    {
      "inputs": [
        {
          "internalType": "int256",
          "name": "x",
          "type": "int256"
        }
      ],
      "name": "PRBMath_SD59x18_Convert_Overflow",
      "type": "error"
    },
    {
      "inputs": [
        {
          "internalType": "int256",
          "name": "x",
          "type": "int256"
        }
      ],
      "name": "PRBMath_SD59x18_Convert_Underflow",
      "type": "error"
    },
    {
      "inputs": [],
      "name": "PRBMath_SD59x18_Div_InputTooSmall",
      "type": "error"
    },
    {
      "inputs": [
        {
          "internalType": "SD59x18",
          "name": "x",
          "type": "int256"
        },
        {
          "internalType": "SD59x18",
          "name": "y",
          "type": "int256"
        }
      ],
      "name": "PRBMath_SD59x18_Div_Overflow",
      "type": "error"
    },
    {
      "inputs": [
        {
          "internalType": "SD59x18",
          "name": "x",
          "type": "int256"
        }
      ],
      "name": "PRBMath_SD59x18_Exp2_InputTooBig",
      "type": "error"
    },
    {
      "inputs": [
        {
          "internalType": "SD59x18",
          "name": "x",
          "type": "int256"
        }
      ],
      "name": "PRBMath_SD59x18_Exp_InputTooBig",
      "type": "error"
    },
    {
      "inputs": [],
      "name": "PRBMath_SD59x18_Mul_InputTooSmall",
      "type": "error"
    },
    {
      "inputs": [
        {
          "internalType": "SD59x18",
          "name": "x",
          "type": "int256"
        },
        {
          "internalType": "SD59x18",
          "name": "y",
          "type": "int256"
        }
      ],
      "name": "PRBMath_SD59x18_Mul_Overflow",
      "type": "error"
    },
    {
      "inputs": [
        {
          "internalType": "uint256",
          "name": "",
          "type": "uint256"
        },
        {
          "internalType": "uint256",
          "name": "",
          "type": "uint256"
        }
      ],
      "name": "biases",
      "outputs": [
        {
          "internalType": "int256",
          "name": "",
          "type": "int256"
        }
      ],
      "stateMutability": "view",
      "type": "function"
    },
    {
      "inputs": [],
      "name": "classify",
      "outputs": [
        {
          "internalType": "int256",
          "name": "",
          "type": "int256"
        }
      ],
      "stateMutability": "view",
      "type": "function"
    },
    {
      "inputs": [],
      "name": "correct_Count",
      "outputs": [
        {
          "internalType": "int256",
          "name": "",
          "type": "int256"
        }
      ],
      "stateMutability": "view",
      "type": "function"
    },
    {
      "inputs": [
        {
          "internalType": "uint256",
          "name": "layer",
          "type": "uint256"
        },
        {
          "internalType": "int256[]",
          "name": "b",
          "type": "int256[]"
        }
      ],
      "name": "set_Biases",
      "outputs": [],
      "stateMutability": "nonpayable",
      "type": "function"
    },
    {
      "inputs": [
        {
          "internalType": "int256[]",
          "name": "d",
          "type": "int256[]"
        }
      ],
      "name": "set_TrainingData",
      "outputs": [],
      "stateMutability": "nonpayable",
      "type": "function"
    },
    {
      "inputs": [
        {
          "internalType": "uint256",
          "name": "layer",
          "type": "uint256"
        },
        {
          "internalType": "int256[]",
          "name": "w",
          "type": "int256[]"
        }
      ],
      "name": "set_Weights",
      "outputs": [],
      "stateMutability": "nonpayable",
      "type": "function"
    },
    {
      "inputs": [
        {
          "internalType": "SD59x18",
          "name": "x",
          "type": "int256"
        }
      ],
      "name": "sigmoid",
      "outputs": [
        {
          "internalType": "SD59x18",
          "name": "",
          "type": "int256"
        }
      ],
      "stateMutability": "pure",
      "type": "function"
    },
    {
      "inputs": [
        {
          "internalType": "uint256",
          "name": "",
          "type": "uint256"
        },
        {
          "internalType": "uint256",
          "name": "",
          "type": "uint256"
        }
      ],
      "name": "training_data",
      "outputs": [
        {
          "internalType": "int256",
          "name": "",
          "type": "int256"
        }
      ],
      "stateMutability": "view",
      "type": "function"
    },
    {
      "inputs": [],
      "name": "view_dataset_size",
      "outputs": [
        {
          "internalType": "uint256",
          "name": "size",
          "type": "uint256"
        }
      ],
      "stateMutability": "view",
      "type": "function"
    },
    {
      "inputs": [
        {
          "internalType": "uint256",
          "name": "",
          "type": "uint256"
        },
        {
          "internalType": "uint256",
          "name": "",
          "type": "uint256"
        }
      ],
      "name": "weights_layer1",
      "outputs": [
        {
          "internalType": "int256",
          "name": "",
          "type": "int256"
        }
      ],
      "stateMutability": "view",
      "type": "function"
    }
  ],
  "bytecode": "0x60806040523480156200001157600080fd5b50604051620025ef380380620025ef833981810160405281019062000037919062000292565b8067ffffffffffffffff811115620000545762000053620002c4565b5b6040519080825280602002602001820160405280156200008957816020015b6060815260200190600190039081620000735790505b5060019080519060200190620000a19291906200012f565b50600167ffffffffffffffff811115620000c057620000bf620002c4565b5b604051908082528060200260200182016040528015620000ef5781602001602082028036833780820191505090505b506001600081548110620001085762000107620002f3565b5b9060005260206000200190805190602001906200012792919062000196565b505062000322565b82805482825590600052602060002090810192821562000183579160200282015b82811115620001825782518290805190602001906200017192919062000196565b509160200191906001019062000150565b5b509050620001929190620001e8565b5090565b828054828255906000526020600020908101928215620001d5579160200282015b82811115620001d4578251825591602001919060010190620001b7565b5b509050620001e4919062000210565b5090565b5b808211156200020c57600081816200020291906200022f565b50600101620001e9565b5090565b5b808211156200022b57600081600090555060010162000211565b5090565b50805460008255906000526020600020908101906200024f919062000210565b50565b600080fd5b6000819050919050565b6200026c8162000257565b81146200027857600080fd5b50565b6000815190506200028c8162000261565b92915050565b600060208284031215620002ab57620002aa62000252565b5b6000620002bb848285016200027b565b91505092915050565b7f4e487b7100000000000000000000000000000000000000000000000000000000600052604160045260246000fd5b7f4e487b7100000000000000000000000000000000000000000000000000000000600052603260045260246000fd5b6122bd80620003326000396000f3fe608060405234801561001057600080fd5b506004361061009e5760003560e01c8063b481106711610066578063b481106714610145578063c3c1ade214610163578063d4b8385c14610193578063d81f22ad146101b1578063f574f069146101e15761009e565b806367fe9add146100a35780638267aff6146100d35780638eca473b146100ef578063a802964f1461010b578063b46cbc1114610129575b600080fd5b6100bd60048036038101906100b89190611c1a565b610211565b6040516100ca9190611c82565b60405180910390f35b6100ed60048036038101906100e89190611d38565b610263565b005b61010960048036038101906101049190611d98565b6102fc565b005b6101136103e8565b6040516101209190611df4565b60405180910390f35b610143600480360381019061013e9190611d38565b610714565b005b61014d61084d565b60405161015a9190611e1e565b60405180910390f35b61017d60048036038101906101789190611e39565b61085a565b60405161018a9190611df4565b60405180910390f35b61019b610897565b6040516101a89190611df4565b60405180910390f35b6101cb60048036038101906101c69190611e39565b61089d565b6040516101d89190611df4565b60405180910390f35b6101fb60048036038101906101f69190611e39565b6108da565b6040516102089190611df4565b60405180910390f35b60008060019050600061022382610917565b905061025a61024b61023c61023787610a1b565b610a3e565b83610b0e90919063ffffffff16565b82610b3c90919063ffffffff16565b92505050919050565b6001838154811061027757610276611e79565b5b906000526020600020018054905082829050146102c9576040517f08c379a00000000000000000000000000000000000000000000000000000000081526004016102c090611f2b565b60405180910390fd5b8181600185815481106102df576102de611e79565b5b9060005260206000200191906102f6929190611b23565b50505050565b60008282905067ffffffffffffffff81111561031b5761031a611f4b565b5b6040519080825280602002602001820160405280156103495781602001602082028036833780820191505090505b50905060005b838390508110156103a65783838281811061036d5761036c611e79565b5b9050602002013582828151811061038757610386611e79565b5b602002602001018181525050808061039e90611fa9565b91505061034f565b506002819080600181540180825580915050600190039060005260206000200160009091909190915090805190602001906103e2929190611b70565b50505050565b6000806000905060005b603281101561070c5760006002828154811061041157610410611e79565b5b9060005260206000200180548060200260200160405190810160405280929190818152602001828054801561046557602002820191906000526020600020905b815481526020019060010190808311610451575b5050505050905060008160008151811061048257610481611e79565b5b602002602001015190506000808054905067ffffffffffffffff8111156104ac576104ab611f4b565b5b6040519080825280602002602001820160405280156104da5781602001602082028036833780820191505090505b50905060005b60008054905081101561067f57600160008154811061050257610501611e79565b5b90600052602060002001818154811061051e5761051d611e79565b5b906000526020600020015482828151811061053c5761053b611e79565b5b6020026020010181815250506000600190505b8451811015610629576105f76105ce6000848154811061057257610571611e79565b5b906000526020600020016001846105899190611ff1565b8154811061059a57610599611e79565b5b90600052602060002001548784815181106105b8576105b7611e79565b5b6020026020010151610cd590919063ffffffff16565b8484815181106105e1576105e0611e79565b5b6020026020010151610b0e90919063ffffffff16565b83838151811061060a57610609611e79565b5b602002602001018181525050808061062190611fa9565b91505061054f565b5061064d8282815181106106405761063f611e79565b5b6020026020010151610211565b8282815181106106605761065f611e79565b5b602002602001018181525050808061067790611fa9565b9150506104e0565b506000806106946706f05b59d3b20000610e65565b90506106c481846000815181106106ae576106ad611e79565b5b6020026020010151610e6f90919063ffffffff16565b156106d957670de0b6b3a764000091506106de565b600091505b8184036106f45786806106f090612025565b9750505b5050505050808061070490611fa9565b9150506103f2565b508091505090565b60018310610757576040517f08c379a000000000000000000000000000000000000000000000000000000000815260040161074e906120b9565b60405180910390fd5b60008282905067ffffffffffffffff81111561077657610775611f4b565b5b6040519080825280602002602001820160405280156107a45781602001602082028036833780820191505090505b50905060005b83839050811015610801578383828181106107c8576107c7611e79565b5b905060200201358282815181106107e2576107e1611e79565b5b60200260200101818152505080806107f990611fa9565b9150506107aa565b506000840361084757600081908060018154018082558091505060019003906000526020600020016000909190919091509080519060200190610845929190611b70565b505b50505050565b6000600280549050905090565b6000828154811061086a57600080fd5b90600052602060002001818154811061088257600080fd5b90600052602060002001600091509150505481565b60035481565b600182815481106108ad57600080fd5b9060005260206000200181815481106108c557600080fd5b90600052602060002001600091509150505481565b600282815481106108ea57600080fd5b90600052602060002001818154811061090257600080fd5b90600052602060002001600091509150505481565b6000670de0b6b3a76400007f800000000000000000000000000000000000000000000000000000000000000061094d9190612108565b82121561099157816040517f99474eeb0000000000000000000000000000000000000000000000000000000081526004016109889190611df4565b60405180910390fd5b670de0b6b3a76400007f7fffffffffffffffffffffffffffffffffffffffffffffffffffffffffffffff6109c59190612108565b821315610a0957816040517f9d581091000000000000000000000000000000000000000000000000000000008152600401610a009190611df4565b60405180910390fd5b670de0b6b3a764000082029050919050565b6000610a37610a2983610e8d565b610a3290612172565b610e97565b9050919050565b600080610a4a83610e8d565b90507ffffffffffffffffffffffffffffffffffffffffffffffffdc0d0570925a462ce811215610a7e576000915050610b09565b680736ea4425c11ac630811315610acc57826040517fca7ec0c5000000000000000000000000000000000000000000000000000000008152600401610ac39190611c82565b60405180910390fd5b60006714057b7ef767814f82029050610b04610aff670de0b6b3a76400008381610af957610af86120d9565b5b05610e97565b610ea1565b925050505b919050565b6000610b34610b1c83610e8d565b610b2585610e8d565b610b2f91906121ba565b610e97565b905092915050565b600080610b4884610e8d565b90506000610b5584610e8d565b90507f8000000000000000000000000000000000000000000000000000000000000000821480610ba457507f800000000000000000000000000000000000000000000000000000000000000081145b15610bdb576040517f9fe2b45000000000000000000000000000000000000000000000000000000000815260040160405180910390fd5b60008060008412610bec5783610bf1565b836000035b915060008312610c015782610c06565b826000035b90506000610c1d83670de0b6b3a764000084610fbf565b90507f7fffffffffffffffffffffffffffffffffffffffffffffffffffffffffffffff811115610c865787876040517fd49c26b3000000000000000000000000000000000000000000000000000000008152600401610c7d9291906121fe565b60405180910390fd5b60007fffffffffffffffffffffffffffffffffffffffffffffffffffffffffffffffff858718139050610cc781610cc05782600003610cc2565b825b610e97565b965050505050505092915050565b600080610ce184610e8d565b90506000610cee84610e8d565b90507f8000000000000000000000000000000000000000000000000000000000000000821480610d3d57507f800000000000000000000000000000000000000000000000000000000000000081145b15610d74576040517fa6070c2500000000000000000000000000000000000000000000000000000000815260040160405180910390fd5b60008060008412610d855783610d8a565b836000035b915060008312610d9a5782610d9f565b826000035b90506000610dad83836110d9565b90507f7fffffffffffffffffffffffffffffffffffffffffffffffffffffffffffffff811115610e165787876040517f120b5b43000000000000000000000000000000000000000000000000000000008152600401610e0d9291906121fe565b60405180910390fd5b60007fffffffffffffffffffffffffffffffffffffffffffffffffffffffffffffffff858718139050610e5781610e505782600003610e52565b825b610e97565b965050505050505092915050565b6000819050919050565b6000610e7a82610e8d565b610e8384610e8d565b1215905092915050565b6000819050919050565b6000819050919050565b600080610ead83610e8d565b90506000811215610f34577ffffffffffffffffffffffffffffffffffffffffffffffffcc22e87f6eb468eeb811215610eea576000915050610fba565b610f2d610f09610f04610eff84600003610e97565b610ea1565b610e8d565b6ec097ce7bc90715b34b9f100000000081610f2757610f266120d9565b5b05610e97565b9150610fb8565b680a688906bd8affffff811315610f8257826040517f0360d028000000000000000000000000000000000000000000000000000000008152600401610f799190611c82565b60405180910390fd5b6000670de0b6b3a7640000604083901b81610fa057610f9f6120d9565b5b059050610fb4610faf826111c3565b610e97565b9250505b505b919050565b6000806000801985870985870292508281108382030391505060008103610ffa57838281610ff057610fef6120d9565b5b04925050506110d2565b838110611042578585856040517f63a0577800000000000000000000000000000000000000000000000000000000815260040161103993929190612227565b60405180910390fd5b60008486880990508281118203915080830392506000600186190186169050600081870496508185049450600182836000030401905080840285179450600060028860030218905080880260020381029050808802600203810290508088026002038102905080880260020381029050808802600203810290508088026002038102905080860296505050505050505b9392505050565b600080600080198486098486029250828110838203039150506000810361111c57670de0b6b3a76400008281611112576111116120d9565b5b04925050506111bd565b670de0b6b3a7640000811061116a5784846040517f5173648d00000000000000000000000000000000000000000000000000000000815260040161116192919061225e565b60405180910390fd5b6000670de0b6b3a764000085870990507faccb18165bd6fe31ae1cf318dc5b51eee0e1ba569b88cd74c1773b91fac106696001620400008060000304018483118403026204000083860304170293505050505b92915050565b6000778000000000000000000000000000000000000000000000009050600067ff00000000000000831611156113245760006780000000000000008316111561121957604068016a09e667f3bcc9098202901c90505b60006740000000000000008316111561123f5760406801306fe0a31b7152df8202901c90505b6000672000000000000000831611156112655760406801172b83c7d517adce8202901c90505b60006710000000000000008316111561128b57604068010b5586cf9890f62a8202901c90505b6000670800000000000000831611156112b15760406801059b0d31585743ae8202901c90505b6000670400000000000000831611156112d7576040680102c9a3e778060ee78202901c90505b6000670200000000000000831611156112fd57604068010163da9fb33356d88202901c90505b600067010000000000000083161115611323576040680100b1afa5abcbed618202901c90505b5b600066ff0000000000008316111561145f57600066800000000000008316111561135b57604068010058c86da1c09ea28202901c90505b60006640000000000000831611156113805760406801002c605e2e8cec508202901c90505b60006620000000000000831611156113a5576040680100162f3904051fa18202901c90505b60006610000000000000831611156113ca5760406801000b175effdc76ba8202901c90505b60006608000000000000831611156113ef576040680100058ba01fb9f96d8202901c90505b600066040000000000008316111561141457604068010002c5cc37da94928202901c90505b60006602000000000000831611156114395760406801000162e525ee05478202901c90505b600066010000000000008316111561145e57604068010000b17255775c048202901c90505b5b600065ff00000000008316111561159157600065800000000000831611156114945760406801000058b91b5bc9ae8202901c90505b600065400000000000831611156114b8576040680100002c5c89d5ec6d8202901c90505b600065200000000000831611156114dc57604068010000162e43f4f8318202901c90505b60006510000000000083161115611500576040680100000b1721bcfc9a8202901c90505b6000650800000000008316111561152457604068010000058b90cf1e6e8202901c90505b600065040000000000831611156115485760406801000002c5c863b73f8202901c90505b6000650200000000008316111561156c576040680100000162e430e5a28202901c90505b600065010000000000831611156115905760406801000000b1721835518202901c90505b5b600064ff00000000831611156116ba576000648000000000831611156115c4576040680100000058b90c0b498202901c90505b6000644000000000831611156115e757604068010000002c5c8601cc8202901c90505b60006420000000008316111561160a5760406801000000162e42fff08202901c90505b60006410000000008316111561162d57604068010000000b17217fbb8202901c90505b6000640800000000831611156116505760406801000000058b90bfce8202901c90505b600064040000000083161115611673576040680100000002c5c85fe38202901c90505b60006402000000008316111561169657604068010000000162e42ff18202901c90505b6000640100000000831611156116b9576040680100000000b17217f88202901c90505b5b600063ff000000831611156117da5760006380000000831611156116eb57604068010000000058b90bfc8202901c90505b600063400000008316111561170d5760406801000000002c5c85fe8202901c90505b600063200000008316111561172f576040680100000000162e42ff8202901c90505b60006310000000831611156117515760406801000000000b17217f8202901c90505b6000630800000083161115611773576040680100000000058b90c08202901c90505b600063040000008316111561179557604068010000000002c5c8608202901c90505b60006302000000831611156117b75760406801000000000162e4308202901c90505b60006301000000831611156117d957604068010000000000b172188202901c90505b5b600062ff0000831611156118f157600062800000831611156118095760406801000000000058b90c8202901c90505b6000624000008316111561182a576040680100000000002c5c868202901c90505b6000622000008316111561184b57604068010000000000162e438202901c90505b6000621000008316111561186c576040680100000000000b17218202901c90505b6000620800008316111561188d57604068010000000000058b918202901c90505b600062040000831611156118ae5760406801000000000002c5c88202901c90505b600062020000831611156118cf576040680100000000000162e48202901c90505b600062010000831611156118f05760406801000000000000b1728202901c90505b5b600061ff00831611156119ff5760006180008316111561191e576040680100000000000058b98202901c90505b60006140008316111561193e57604068010000000000002c5d8202901c90505b60006120008316111561195e5760406801000000000000162e8202901c90505b60006110008316111561197e57604068010000000000000b178202901c90505b60006108008316111561199e5760406801000000000000058c8202901c90505b6000610400831611156119be576040680100000000000002c68202901c90505b6000610200831611156119de576040680100000000000001638202901c90505b6000610100831611156119fe576040680100000000000000b18202901c90505b5b600060ff83161115611b04576000608083161115611a2a576040680100000000000000598202901c90505b6000604083161115611a495760406801000000000000002c8202901c90505b6000602083161115611a68576040680100000000000000168202901c90505b6000601083161115611a875760406801000000000000000b8202901c90505b6000600883161115611aa6576040680100000000000000068202901c90505b6000600483161115611ac5576040680100000000000000038202901c90505b6000600283161115611ae4576040680100000000000000018202901c90505b6000600183161115611b03576040680100000000000000018202901c90505b5b670de0b6b3a764000081029050604082901c60bf0381901c9050919050565b828054828255906000526020600020908101928215611b5f579160200282015b82811115611b5e578235825591602001919060010190611b43565b5b509050611b6c9190611bbd565b5090565b828054828255906000526020600020908101928215611bac579160200282015b82811115611bab578251825591602001919060010190611b90565b5b509050611bb99190611bbd565b5090565b5b80821115611bd6576000816000905550600101611bbe565b5090565b600080fd5b600080fd5b6000819050919050565b611bf781611be4565b8114611c0257600080fd5b50565b600081359050611c1481611bee565b92915050565b600060208284031215611c3057611c2f611bda565b5b6000611c3e84828501611c05565b91505092915050565b6000819050919050565b6000611c6c611c67611c6284611be4565b611c47565b611be4565b9050919050565b611c7c81611c51565b82525050565b6000602082019050611c976000830184611c73565b92915050565b6000819050919050565b611cb081611c9d565b8114611cbb57600080fd5b50565b600081359050611ccd81611ca7565b92915050565b600080fd5b600080fd5b600080fd5b60008083601f840112611cf857611cf7611cd3565b5b8235905067ffffffffffffffff811115611d1557611d14611cd8565b5b602083019150836020820283011115611d3157611d30611cdd565b5b9250929050565b600080600060408486031215611d5157611d50611bda565b5b6000611d5f86828701611cbe565b935050602084013567ffffffffffffffff811115611d8057611d7f611bdf565b5b611d8c86828701611ce2565b92509250509250925092565b60008060208385031215611daf57611dae611bda565b5b600083013567ffffffffffffffff811115611dcd57611dcc611bdf565b5b611dd985828601611ce2565b92509250509250929050565b611dee81611be4565b82525050565b6000602082019050611e096000830184611de5565b92915050565b611e1881611c9d565b82525050565b6000602082019050611e336000830184611e0f565b92915050565b60008060408385031215611e5057611e4f611bda565b5b6000611e5e85828601611cbe565b9250506020611e6f85828601611cbe565b9150509250929050565b7f4e487b7100000000000000000000000000000000000000000000000000000000600052603260045260246000fd5b600082825260208201905092915050565b7f53697a65206f6620696e7075742062696173657320646f6573206e6f74206d6160008201527f746368206e6575726f6e206e756d626572000000000000000000000000000000602082015250565b6000611f15603183611ea8565b9150611f2082611eb9565b604082019050919050565b60006020820190508181036000830152611f4481611f08565b9050919050565b7f4e487b7100000000000000000000000000000000000000000000000000000000600052604160045260246000fd5b7f4e487b7100000000000000000000000000000000000000000000000000000000600052601160045260246000fd5b6000611fb482611c9d565b91507fffffffffffffffffffffffffffffffffffffffffffffffffffffffffffffffff8203611fe657611fe5611f7a565b5b600182019050919050565b6000611ffc82611c9d565b915061200783611c9d565b925082820390508181111561201f5761201e611f7a565b5b92915050565b600061203082611be4565b91507f7fffffffffffffffffffffffffffffffffffffffffffffffffffffffffffffff820361206257612061611f7a565b5b600182019050919050565b7f4c6179657220696e646578206f7574206f6620626f756e647300000000000000600082015250565b60006120a3601983611ea8565b91506120ae8261206d565b602082019050919050565b600060208201905081810360008301526120d281612096565b9050919050565b7f4e487b7100000000000000000000000000000000000000000000000000000000600052601260045260246000fd5b600061211382611be4565b915061211e83611be4565b92508261212e5761212d6120d9565b5b600160000383147f80000000000000000000000000000000000000000000000000000000000000008314161561216757612166611f7a565b5b828205905092915050565b600061217d82611be4565b91507f800000000000000000000000000000000000000000000000000000000000000082036121af576121ae611f7a565b5b816000039050919050565b60006121c582611be4565b91506121d083611be4565b9250828201905082811215600083121683821260008412151617156121f8576121f7611f7a565b5b92915050565b60006040820190506122136000830185611c73565b6122206020830184611c73565b9392505050565b600060608201905061223c6000830186611e0f565b6122496020830185611e0f565b6122566040830184611e0f565b949350505050565b60006040820190506122736000830185611e0f565b6122806020830184611e0f565b939250505056fea2646970667358221220e96ec4f519148d6a7a4d8f8f24a19d96c6ff6ad920ac8dc8de1dff19e0cec73664736f6c63430008140033",
  "linkReferences": {},
  "deployedLinkReferences": {}
}